:100000000210A302000902139580FE020E8980FEF1
:1000100080FE2202000E80FE80FE1402001080FE90
:0200200080FE60
:0700230002001680FE80FEC2
:10002B000200188F828E83E5821582AE83700215D3
:10003B00834E60097F147E0012157B80EA2280FEBE
:03004B0002001E92
:0300530002002088
:03005B000200267A
:0D0063000200288F993099FDC2997F00227C
:0300730002141B59
:0C007B00020049300105C20143D44022BC
:10008B000213028F0BC20374017E00A807088005C0
:10009B00C333CE33CED8F9F5138E1275F002E50BC0
:1000AB00A4242AF582E5F03416F583E493FC74015D
:1000BB0093FD900047E0FF7E00120A0B7C007D0A47
:1000CB00120A1D8E0C8F0D75F002E50BA4240AF598
:1000DB0082E5F03416F583E493F50E740193F50F76
:1000EB00741E250BF582E43400F583E0F50BF470F8
:1000FB000302075475F002E50BA4243FF582E5F0EB
:10010B003400F583E0FEA3E0FF75F002E50BA424B9
:10011B0052F582E5F03400F583E0FCA3E0C39FF5D4
:10012B0011EC9EF51075F002E50BA4240EF582E59B
:10013B00F03400F583E0FCA3E0C39FFFEC9EAB071C
:10014B00FA901608E493FF70030202817E00AC0C58
:10015B00AD0D120A0BD3EB9FEE6480F8EA64809826
:10016B00500302027F75F002E50BA42416F582E51D
:10017B00F03400F583E475F001120A7275F002E5B4
:10018B000BA42416F582E5F03400F583E0FEA3E022
:10019B00FF901602E493FC740193FDD3EF9DEE9C4C
:1001AB00402C75F002E50BA4243FF582E5F03400FA
:1001BB00F583E5108511F0120A7275F002E50BA4B8
:1001CB002416F582E5F03400F583E4F0A3F0742AED
:1001DB00250BF582E43400F583E004F0742A250B3B
:1001EB00F582E43400F583E0FF901607E493FEEF0D
:1001FB00C39E401FE513F4FFE512F4FE900080E070
:10020B005EF0A3E05FF0742A250BF582E43400F571
:10021B0083E4F07400250BF582E43400F583E4F0FD
:10022B0075F002E50BA4242EF582E5F03400F5837E
:10023B00E4F0A3F075F002E50BA42448F582E5F099
:10024B003400F583E4F0A3F075F002E50BA424066B
:10025B00F582E5F03400F583E4F0A3F075F002E5E8
:10026B000BA42436F582E5F03400F583E4F0A3F01B
:10027B00D2038002C203C3EB950DE50C6480F8EA50
:10028B0064809850030203BD3003030207549000AF
:10029B0004E0FEA3E0FF4E606A75F002E50BA424B8
:1002AB002EF582E5F03400F583E475F001120A7245
:1002BB0075F002E50BA4242EF582E5F03400F583EE
:1002CB00E0FCA3E0C39FEC9E403975F002E50BA464
:1002DB00243FF582E5F03400F583E5108511F0122B
:1002EB000A727400250BF582E43400F583E4F07593
:1002FB00F002E50BA4242EF582E5F03400F583E43F
:10030B00F0A3F090164BE4937E00250DFFEE350C19
:10031B00FEC3E5119FEE6480F8E510648098500DE4
:10032B00C3EB9FEE6480F8EA648098405374002519
:10033B000BF582E43400F583E004F07400250BF533
:10034B0082E43400F583E0FF901606E493FEEFC3DE
:10035B009E4019900080E04512F0A3E04513F07425
:10036B0000250BF582E43400F583E4F075F002E52B
:10037B000BA42448F582E5F03400F583E4F0A3F0F8
:10038B00742A250BF582E43400F583E4F075F00252
:10039B00E50BA42416F582E5F03400F583E4F0A315
:1003AB00F075F002E50BA42406F582E5F0340002AB
:1003BB000643D3EB950FE50E6480F8EA6480985002
:1003CB00030204DE900050E0FEA3E0FF4E605D757B
:1003DB00F002E50BA42448F582E5F03400F583E444
:1003EB0075F001120A7275F002E50BA42448F58230
:1003FB00E5F03400F583E0FCA3E0D39FEC9E402CAA
:10040B0075F002E50BA4243FF582E5F03400F5838B
:10041B00E5108511F0120A7275F002E50BA4244861
:10042B00F582E5F03400F583E4F0A3F090164BE48D
:10043B0093FFC3E50D9FFFE50C9400FEC3E5119FF1
:10044B00EE6480F8E510648098400CEB9FEE6480BE
:10045B00F8EA6480985059742A250BF582E434002D
:10046B00F583E004F0742A250BF582E43400F58360
:10047B00E0FF901607E493FEEFC39E401FE513F4D5
:10048B00FFE512F4FE900080E05EF0A3E05FF074F5
:10049B002A250BF582E43400F583E4F075F002E5D0
:1004AB000BA4242EF582E5F03400F583E4F0A3F0E1
:1004BB0075F002E50BA42416F582E5F03400F58304
:1004CB00E4F0A3F07400250BF582E43400F583E42B
:1004DB00020648C3E4950FFFE4950EFEC3EB9FEEB7
:1004EB006480F8EA648098500302065AD3EB950FA8
:1004FB00E50E6480F8EA648098400302065A75F0B2
:10050B0002E50BA42406F582E5F03400F583EA8BB3
:10051B00F0120A72901609E493F9FF75F002E50BDD
:10052B00A42406F582E5F03400F583E0FCA3E0FD9E
:10053B00D39F7480F8EC648098401D90003EE0FFE0
:10054B0075F002E50BA4243FF582E5F03400F5834A
:10055B00E48FF0120A728044E9FFC3E49FFFE49436
:10056B0000FEC3ED9FEE6480F8EC648098504175FB
:10057B00F002E50BA4243FF582E5F03400F583C0CF
:10058B0083C082E0FEA3E0FF90003EE0FDC3EF9D41
:10059B00FFEE9400D082D083F0A3EFF075F002E56C
:1005AB000BA42406F582E5F03400F583E4F0A3F008
:1005BB00742A250BF582E43400F583E004F0742AE9
:1005CB00250BF582E43400F583E0FF901607E493E6
:1005DB00FEEFC39E401F742A250BF582E43400F511
:1005EB0083E4F0E513F4FFE512F4FE900080E05E87
:1005FB00F0A3E05FF075F002E50BA42416F582E59D
:10060B00F03400F583E4F0A3F07400250BF582E4DD
:10061B003400F583E4F075F002E50BA4242EF5828B
:10062B00E5F03400F583E4F0A3F075F002E50BA4DC
:10063B002448F582E5F03400F583E4F0A3F075F07F
:10064B0002E50BA42436F582E5F0340002074C904A
:10065B001604E493FE740193FF4E605D75F002E5A2
:10066B000BA42436F582E5F03400F583E475F00134
:10067B00120A7275F002E50BA42436F582E5F0340C
:10068B0000F583E0FCA3E0C39FEC9E402C75F002C9
:10069B00E50BA42436F582E5F03400F583E4F0A3F2
:1006AB00F075F002E50BA4243FF582E5F03400F57C
:1006BB0083E5108511F0120A72742A250BF582E47A
:1006CB003400F583E004F0742A250BF582E4340042
:1006DB00F583E0FF901607E493FEEFC39E401F7473
:1006EB002A250BF582E43400F583E4F0E513F4FFDF
:1006FB00E512F4FE900080E05EF0A3E05FF075F091
:10070B0002E50BA42416F582E5F03400F583E4F042
:10071B00A3F07400250BF582E43400F583E4F07547
:10072B00F002E50BA4242EF582E5F03400F583E40A
:10073B00F0A3F075F002E50BA42448F582E5F03444
:10074B0000F583E4F0A3F0C20322E5347003020A40
:10075B000AE53D7003020A0A900060E0C3940F7F24
:10076B000150027F00EF25E0FF90005FE0C3940F84
:10077B007E0150027E00EE4FFF900061E0C3940FAC
:10078B007E0150027E00EE25E025E04FFF900062D7
:10079B00E0C3940F7E0150027E00EE33333354F8E6
:1007AB004FFF900063E0C3940F7E0150027E00EE7A
:1007BB00C454F04FFF900064E0C3940F7E015002CD
:1007CB007E00EEC43354E04FFF900065E0C3940FFE
:1007DB007E0150027E00EEC4333354C04FFF9000B5
:1007EB0066E0C3940F7E0150027E00EEC4333333B8
:1007FB0054804F90005AF0900068E0C3940F7F0133
:10080B0050027F00EF25E0FF900067E0C3940F7E5E
:10081B000150027E00EE4FFF900069E0C3940F7E03
:10082B000150027E00EE25E025E04FFF90006AE0CC
:10083B00C3940F7E0150027E00EE33333354F84FD6
:10084B00FF90006BE0C3940F7E0150027E00EEC45C
:10085B0054F04FFF90006CE0C3940F7E0150027E6A
:10086B0000EEC43354E04FFF90006DE0C3940F7E55
:10087B000150027E00EEC4333354C04FFF90006E24
:10088B00E0C3940F7E0150027E00EEC43333335429
:10089B00804F90005BF0900070E0C3940F7F01508D
:1008AB00027F00EF25E0FF90006FE0C3940F7E0105
:1008BB0050027E00EE4FFF900071E0C3940F7E015B
:1008CB0050027E00EE25E025E04FFF900072E0C362
:1008DB00940F7E0150027E00EE33333354F84FFFFA
:1008EB00900073E0C3940F7E0150027E00EEC4545F
:1008FB00F04FFF900074E0C3940F7E0150027E0016
:10090B00EEC43354E04FFF900075E0C3940F7E01AB
:10091B0050027E00EEC4333354C04FFF900076E09C
:10092B00C3940F7E0150027E00EEC43333335480E8
:10093B004F90005CF0900078E0C3940F7F01500261
:10094B007F00EF25E0FF900077E0C3940F7E01500E
:10095B00027E00EE4FFF900079E0C3940F7E0150B2
:10096B00027E00EE25E025E04FFF90007AE0C39475
:10097B000F7E0150027E00EE33333354F84FFF905D
:10098B00007BE0C3940F7E0150027E00EEC454F056
:10099B004FFF90007CE0C3940F7E0150027E00EE6F
:1009AB00C43354E04FFF90007DE0C3940F7E0150A1
:1009BB00027E00EEC4333354C04FFF90007EE0C381
:1009CB00940F7E0150027E00EEC433333354804FBC
:1009DB0090005DF0E4F534120DBBE4F50AF50BF570
:1009EB000AF50B745E250BF5827400350AF583E46A
:1009FB00F0050BE50B7002050A6421450A70E42231
:100A0B00EF8DF0A4A8F0CF8CF0A428CE8DF0A42EFF
:100A1B00FE22BC000BBE0029EF8DF084FFADF0224F
:100A2B00E4CCF875F008EF2FFFEE33FEEC33FCEE61
:100A3B009DEC984005FCEE9DFE0FD5F0E9E4CEFD54
:100A4B0022EDF8F5F0EE8420D21CFEADF075F00827
:100A5B00EF2FFFED33FD4007985006D5F0F222C380
:100A6B0098FD0FD5F0EA22C5F0F8A3E028F0C5F009
:100A7B00F8E582158270021583E038F02275F008D4
:100A8B00758200EF2FFFEE33FECD33CDCC33CCC5CB
:100A9B008233C5829BED9AEC99E58298400CF582E6
:100AAB00EE9BFEED9AFDEC99FC0FD5F0D6E4CEFB58
:100ABB00E4CDFAE4CCF9A88222B800C1B90059BA46
:100ACB00002DEC8BF084CFCECDFCE5F0CBF9781874
:100ADB00EF2FFFEE33FEED33FDEC33FCEB33FB106E
:100AEB00D703994004EB99FB0FD8E5E4F9FA227888
:100AFB0018EF2FFFEE33FEED33FDEC33FCC933C99A
:100B0B0010D7059BE99A4007EC9BFCE99AF90FD8A3
:100B1B00E0E4C9FAE4CCFB2275F010EF2FFFEE33C3
:100B2B00FEED33FDCC33CCC833C810D7079BEC9A02
:100B3B00E899400AED9BFDEC9AFCE899F80FD5F08B
:100B4B00DAE4CDFBE4CCFAE4C8F922EB9FF5F0EA4A
:100B5B009E42F0E99D42F0E89C45F0227401FF3380
:100B6B0095E0FEFDFC080808E6CF2FF618E6CE3E12
:100B7B00F618E6CD3DF618E6CC3CF622D2B4D2A35D
:100B8B00D2A2EF24B87003020C3424F87003020CC9
:100B9B00402450B40A004003020C50900BADF828CF
:100BAB002873020BCB020BDC020BE0020BEC020BEB
:100BBB00FC020C06020C10020C16020C1E020C2876
:100BCB00D2A1D2A0D281D280D2A7D2A6C2A5020C2A
:100BDB005EC2A18038D2A1D2A0C281D280D2A7801E
:100BEB000AD2A1D2A0D281D280C2A7C2A6D2A5809E
:100BFB0062C2A1D2A0D281C280802AD2A1C2A0D2CD
:100C0B0081D2808020D2A1C2A0800CD2A1D2A0D24E
:100C1B00818038D2A1D2A0D281D2808014D2A1D22D
:100C2B00A0D281D280C2A78016C2A1D2A0D281C28B
:100C3B0080D2A7800AD2A1D2A0C281C280D2A7D271
:100C4B00A6D2A5800EC2A1C2A0C281C280C2A7C279
:100C5B00A6C2A5BD0107C2B4D2A3D2A222BD020770
:100C6B00D2B4C2A3D2A222ED64037029C2A1C2A046
:100C7B00C281C280C2A7C2A6C2A5E536B40102D208
:100C8B00A0E537B40102D281E538B40102D280D29B
:100C9B00B4D2A3C2A22290FE94E04402F090FE4094
:100CAB00E4F0A3F0A3F0A3F0A3F0A3F0A3F0A3F060
:100CBB00A3F0A3F0A3F0A3F0A3F0A3F0A3F0A3F091
:100CCB0090FE60F0A3F0A3F0A3F0A3F0A3F0A3F0C9
:100CDB00A3F09015FC9390FE77F09015FDE49390A4
:100CEB00FE76F09015FEE49390FE75F09015FFE400
:100CFB009390FE74F09015F7E493F515740193F54A
:100D0B0016901601E4936061E4F50A90164CE49397
:100D1B00FFE50AC39F505274017E00A80A088005A4
:100D2B00C333CE33CED8F9FFE5155EFEE5165F4E25
:100D3B00603390FE72C083C082E0FCA3E0FDE50A45
:100D4B009015EB93FF74017E00A807088005C33351
:100D5B00CE33CED8F9FFEC4EFEED4FFFD082D083D1
:100D6B00EEF0A3EFF0050A80A243D480D2BD12139C
:100D7B004C90164CE493F514121395D202C2001248
:100D8B00007E90164DE493FFD394035005750A052E
:100D9B008005EF2404F50AE50A600F3000F9121400
:100DAB00F6150AC20012007E80ED121456C2022202
:100DBB0090005AE06003020E88A3E0F46003020E79
:100DCB0088C3E53394E8E53294035003020E88E4BC
:100DDB00F532F53390005CE0B4461BE52F700C75D3
:100DEB002F01F52E753501F53C800BE4F52FF52E13
:100DFB00F535F53CF539E52F6401706F7F01121164
:100E0B003D90005CE0FFB44420E4F52CF52DF52972
:100E1B00E535B401057535028051E535B40205752C
:100E2B00350380477535018042EFB4430EE53C70C6
:100E3B0005753C018035E4F53C8030EFB4162CE4AD
:100E4B00F52CF52DC3E52E648094895007052E757E
:100E5B0029018005E4F52EF529AF2EEF3395E0FE41
:100E6B007C007D3C120A0B8E308F3190005CE0B41D
:100E7B000D0BE539700475390122E4F53922C0E018
:100E8B00C0F0C083C082C0D075D000C000C001C00C
:100E9B0002C003C004C005C006C007053AE53AD33B
:100EAB0094964006753D01753A00E47B32FAF9F8E9
:100EBB00AF27AE26AD25AC24120AC4AC00AD01AEF3
:100ECB0002AF03EC4D4E4F60031214C37824120B88
:100EDB00677BC07A2779097800C3120B5650377598
:100EEB002700752600752500752400E5319400E573
:100EFB003094004021E531153170021530AE30AF22
:100F0B00317C007D3C120A1DEF04F52EE531453096
:100F1B007004F52FF52E0533E53370020532D0073B
:100F2B00D006D005D004D003D002D001D000D0D051
:100F3B00D082D083D0F0D0E032900080E0FEA3E0EE
:100F4B004E7003020FF8E5286003020FFB752801B2
:100F5B00FCFDEE5408FE601BE52F700C752F01F5A0
:100F6B002E753501F53C800BE4F52FF52EF535F597
:100F7B003CF539E52F640170777F0112113D90002C
:100F8B0080E0FAEA5404601DE4F52CF52DF529E513
:100F9B0035B4010475350222E535B4020475350309
:100FAB002275350122EA5402600CE53C7004753C55
:100FBB000122E4F53C22900080E0FEEE540160300B
:100FCB00E4F52CF52DC3E52E648094895007052E8E
:100FDB007529018005E4F52EF529AF2EEF3395E049
:100FEB00FE7C007D3C120A0B8E308F3122E4F528FB
:100FFB0022E52F6401600302108D753601E53C601C
:10100B0007753701D2878005E4F537C287D3E53101
:10101B009400E530940040057538018003E4F53801
:10102B00E535B40108D293C292C2918018E535B46C
:10103B000208C293D292C291800BE535B40306C26B
:10104B0093C292D291C3E52D94C8E52C9400501B0A
:10105B00052DE52D7002052CE5297002801DC3E5D9
:10106B002E648094814002800B8010C3E52E648037
:10107B0094814007852E2A752B4822752A50853579
:10108B002B22E4F535F53CF52EF530F531F52AF547
:10109B002BF536F537F5382278FFE4F6D8FD9000BE
:1010AB00007F007E04E4F0A3DFFCDEFA75813D02D5
:1010BB0010F80212A2E493A3F8E493A34003F68082
:1010CB0001F208DFF48029E493A3F85407240CC839
:1010DB00C333C4540F4420C8834004F456800146E4
:1010EB00F6DFE4800B0102040810204080901234DC
:1010FB00E47E019360BCA3FF543F30E509541FFE0F
:10110B00E493A360010ECF54C025E060A840B8E47F
:10111B0093A3FAE493A3F8E493A3C8C582C8CAC502
:10112B0083CAF0A3C8C582C8CAC583CADFE9DEE794
:10113B0080BEBF011D90FF1474C2F090FF9C7424FD
:10114B00F075DE2075DF1075DD9775220075230AAB
:10115B00803EBF021D90FF1474C2F090FF9C74245C
:10116B00F075DE2075DF1075DD9775220075231481
:10117B00801EBF031B90FF1474C2F090FF9C74245D
:10118B00F075DE2075DF1075DD9775220075233243
:10119B00D3E5239400E522648094804016E5231563
:1011AB002370021522E5234522700875DD0790FF99
:1011BB001404F022E4F58090FF0004F090FF01F09E
:1011CB0090FF02F090FF03F090FF04F090FF05F00A
:1011DB0090FF06F090FF07F090FF08F090FF09F0EA
:1011EB0090FF0AF090FF0BF090FF0CF090FF0DF0CA
:1011FB0090FF0EF090FF0FF0E4F5A090FF1004F0BD
:10120B0090FF11F090FF12F090FF13F090FF14F08D
:10121B0090FF15F090FF16F090FF17F0E4F5B090EB
:10122B00FF1C04F090FF1DF022012A00012B00018E
:10123B003600013700013800012F00013500013C59
:10124B0000012E0002300000013900022C000001C9
:10125B00290001210002220000013A00013D00019A
:10126B003B000134000232000004240000000001A6
:10127B00280042000403E842005003E84100470AFB
:10128B0041003E0201140002150000C102C101C160
:10129B0000420080000000E4F508F509121591905A
:1012AB00FE927410F01211BFD2AF120CA11213DC0C
:1012BB001215BC1215641215D07F0312113D3000AC
:1012CB0005121525C200120F44120755120FFCE42C
:1012DB00FF12113D7F0A7E0012002E0509E509AEB3
:1012EB00087002050814D394C8EE6480948040CE35
:1012FB00E4F508F50980C7C0E0C083C082C0D053B5
:10130B009FFDE53B602CE53AD394694003753400AF
:10131B00745E2534F582E43400F583E53AF0753AD2
:10132B00000534E534D394214003753400753D003A
:10133B008006753B01753A00D0D0D082D083D0E0C7
:10134B0032E4FDFC90164CE493FFEDC39F503A74CE
:10135B00017E00A805088005C333CE33CED8F9FF34
:10136B00E5155EFEE5165F4E600F741E2DF582E4EB
:10137B003400F583ECF00C800D741E2DF582E434F3
:10138B0000F58374FFF00D80BB22051490164CE41E
:10139B0093FFE514C39F4007D200D201E4F514E597
:1013AB001645157003D2012274017E00A814088023
:1013BB0005C333CE33CED8F9FFE5155EFEE5165FD8
:1013CB004E60C7E5149015EB93F5D50000000000B7
:1013DB002290FF1174C1F090FF10F090FF01F0907C
:1013EB00FF00F090FF17F090FF16F090FF15F090B4
:1013FB00FF1CF090FF13F090FF12F0C2A1C2A0C22D
:10140B0081C280C2A7C2A6C2A5D2B4D2A3D2A22245
:10141B00C0E0C0F0C083C082C0D075D000C000C097
:10142B0001C002C003C004C005C006C00712148F60
:10143B00D007D006D005D004D003D002D001D00005
:10144B00D0D0D082D083D0F0D0E032E4FF90164AD7
:10145B00E493FEEFC39E502B75F002EFA42452F5DC
:10146B0082E5F03400F583E0FCA3E0FD75F002EFBC
:10147B00A4243FF582E5F03400F583ECF0A3EDF006
:10148B000F80CA2253D4DF741E2514F582E4340076
:10149B00F583E075F002A4240EF582E5F03400F537
:1014AB0083E5D7F0A3E5D6F0120006300203200047
:1014BB000620010343D44022E539702BE521B4010A
:1014CB00067D01AF2A8009E521B402097D02AF2B0D
:1014DB00120B87800FE521B4030A7D037F58120B93
:1014EB0087E4F5210521221215A722E4FF75F002EE
:1014FB00EFA4240EF582E5F03400F583E0FCA3E0C5
:10150B00FD75F002EFA42452F582E5F03400F5836B
:10151B00ECF0A3EDF00FBF04D4221215E3E4F50AAF
:10152B0090164CE493FFE50AC39F5009AF0A1200D3
:10153B008E050A80EB901600E493600312007E2266
:10154B0090FF1074C1F090FFA07420F075CC06755D
:10155B009E0275CEFF75CD982290FF1D7469F09099
:10156B00FEB4E04404F090FEBA7402F043D80122BA
:10157B00EF1FAA0670011E4A600BE4FDEDC3941821
:10158B0050EE0D80F722758E1190FE917401F09044
:10159B00FEAA74FFF090FEA474C2F022C2A1C2A0F6
:1015AB00C281C280C2A7C2A6C2A5D2B4D2A3D2A204
:1015BB0022E490FE80F0F589758CFF758A7B43A839
:1015CB00024388102290FF0774C1F090FF0BF0903C
:1015DB00FF0AF090FF09F022D201E5D420E6FB22AE
:1015EB000001020307090A0B0C0D0E0F0F0000146C
:1015FB0000300A20060100012C006402020050009A
:10160B000A000A000A000A000A000A000A000A007F
:10161B000A000A000A000A000A000A000A000A006F
:10162B0078007800780078007800780078007800EF
:10163B0078007800780078007800780078007804DB
:03164B000F0C0081
:00000001FF
