:1000000002112B02000902142D80FE02107080FEE6
:1000100080FE2202000E80FE80FE1402001080FE90
:0200200080FE60
:0700230002001680FE80FEC2
:10002B000200188F828E83E5821582AE83700215D3
:10003B00834E60097F147E0012162A80EA2280FE0E
:03004B0002001E92
:0300530002002088
:03005B000200267A
:0D0063000200288F993099FDC2997F00227C
:030073000214B3C1
:0C007B00020049300105C20143D44022BC
:10008B0002139A8F0BC20374017E00A80708800528
:10009B00C333CE33CED8F9F5138E1275F002E50BC0
:1000AB00A424D9F582E5F03416F583E493FC7401AE
:1000BB0093FD900055E0FF7E00120A0B7C007D0A39
:1000CB00120A1D8E0C8F0D75F002E50BA424B9F5E9
:1000DB0082E5F03416F583E493F50E740193F50F76
:1000EB007425250BF582E43400F583E0F50BF470F1
:1000FB000302075475F002E50BA4244BF582E5F0DF
:10010B003400F583E0FEA3E0FF75F002E50BA424B9
:10011B0062F582E5F03400F583E0FCA3E0C39FF5C4
:10012B0011EC9EF51075F002E50BA42411F582E598
:10013B00F03400F583E0FCA3E0C39FFFEC9EAB071C
:10014B00FA9016B7E493FF70030202817E00AC0CA9
:10015B00AD0D120A0BD3EB9FEE6480F8EA64809826
:10016B00500302027F75F002E50BA4241BF582E518
:10017B00F03400F583E475F001120A7275F002E5B4
:10018B000BA4241BF582E5F03400F583E0FEA3E01D
:10019B00FF9016B1E493FC740193FDD3EF9DEE9C9D
:1001AB00402C75F002E50BA4244BF582E5F03400EE
:1001BB00F583E5108511F0120A7275F002E50BA4B8
:1001CB00241BF582E5F03400F583E4F0A3F07431E1
:1001DB00250BF582E43400F583E004F07431250B34
:1001EB00F582E43400F583E0FF9016B6E493FEEF5E
:1001FB00C39E401FE513F4FFE512F4FE900092E05E
:10020B005EF0A3E05FF07431250BF582E43400F56A
:10021B0083E4F07400250BF582E43400F583E4F0FD
:10022B0075F002E50BA42436F582E5F03400F58376
:10023B00E4F0A3F075F002E50BA42456F582E5F08B
:10024B003400F583E4F0A3F075F002E50BA424076A
:10025B00F582E5F03400F583E4F0A3F075F002E5E8
:10026B000BA42440F582E5F03400F583E4F0A3F011
:10027B00D2038002C203C3EB950DE50C6480F8EA50
:10028B0064809850030203BD3003030207549000AF
:10029B0005E0FEA3E0FF4E606A75F002E50BA424B7
:1002AB0036F582E5F03400F583E475F001120A723D
:1002BB0075F002E50BA42436F582E5F03400F583E6
:1002CB00E0FCA3E0C39FEC9E403975F002E50BA464
:1002DB00244BF582E5F03400F583E5108511F0121F
:1002EB000A727400250BF582E43400F583E4F07593
:1002FB00F002E50BA42436F582E5F03400F583E437
:10030B00F0A3F09016FAE4937E00250DFFEE350C6A
:10031B00FEC3E5119FEE6480F8E510648098500DE4
:10032B00C3EB9FEE6480F8EA648098405374002519
:10033B000BF582E43400F583E004F07400250BF533
:10034B0082E43400F583E0FF9016B5E493FEEFC32F
:10035B009E4019900092E04512F0A3E04513F07413
:10036B0000250BF582E43400F583E4F075F002E52B
:10037B000BA42456F582E5F03400F583E4F0A3F0EA
:10038B007431250BF582E43400F583E4F075F0024B
:10039B00E50BA4241BF582E5F03400F583E4F0A310
:1003AB00F075F002E50BA42407F582E5F0340002AA
:1003BB000643D3EB950FE50E6480F8EA6480985002
:1003CB00030204DE900060E0FEA3E0FF4E605D756B
:1003DB00F002E50BA42456F582E5F03400F583E436
:1003EB0075F001120A7275F002E50BA42456F58222
:1003FB00E5F03400F583E0FCA3E0D39FEC9E402CAA
:10040B0075F002E50BA4244BF582E5F03400F5837F
:10041B00E5108511F0120A7275F002E50BA4245653
:10042B00F582E5F03400F583E4F0A3F09016FAE4DE
:10043B0093FFC3E50D9FFFE50C9400FEC3E5119FF1
:10044B00EE6480F8E510648098400CEB9FEE6480BE
:10045B00F8EA64809850597431250BF582E4340026
:10046B00F583E004F07431250BF582E43400F58359
:10047B00E0FF9016B6E493FEEFC39E401FE513F426
:10048B00FFE512F4FE900092E05EF0A3E05FF074E3
:10049B0031250BF582E43400F583E4F075F002E5C9
:1004AB000BA42436F582E5F03400F583E4F0A3F0D9
:1004BB0075F002E50BA4241BF582E5F03400F583FF
:1004CB00E4F0A3F07400250BF582E43400F583E42B
:1004DB00020648C3E4950FFFE4950EFEC3EB9FEEB7
:1004EB006480F8EA648098500302065AD3EB950FA8
:1004FB00E50E6480F8EA648098400302065A75F0B2
:10050B0002E50BA42407F582E5F03400F583EA8BB2
:10051B00F0120A729016B8E493F9FF75F002E50B2E
:10052B00A42407F582E5F03400F583E0FCA3E0FD9D
:10053B00D39F7480F8EC648098401D90004AE0FFD4
:10054B0075F002E50BA4244BF582E5F03400F5833E
:10055B00E48FF0120A728044E9FFC3E49FFFE49436
:10056B0000FEC3ED9FEE6480F8EC648098504175FB
:10057B00F002E50BA4244BF582E5F03400F583C0C3
:10058B0083C082E0FEA3E0FF90004AE0FDC3EF9D35
:10059B00FFEE9400D082D083F0A3EFF075F002E56C
:1005AB000BA42407F582E5F03400F583E4F0A3F007
:1005BB007431250BF582E43400F583E004F07431DB
:1005CB00250BF582E43400F583E0FF9016B6E49337
:1005DB00FEEFC39E401F7431250BF582E43400F50A
:1005EB0083E4F0E513F4FFE512F4FE900092E05E75
:1005FB00F0A3E05FF075F002E50BA4241BF582E598
:10060B00F03400F583E4F0A3F07400250BF582E4DD
:10061B003400F583E4F075F002E50BA42436F58283
:10062B00E5F03400F583E4F0A3F075F002E50BA4DC
:10063B002456F582E5F03400F583E4F0A3F075F071
:10064B0002E50BA42440F582E5F0340002074C9040
:10065B0016B3E493FE740193FF4E605D75F002E5F3
:10066B000BA42440F582E5F03400F583E475F0012A
:10067B00120A7275F002E50BA42440F582E5F03402
:10068B0000F583E0FCA3E0C39FEC9E402C75F002C9
:10069B00E50BA42440F582E5F03400F583E4F0A3E8
:1006AB00F075F002E50BA4244BF582E5F03400F570
:1006BB0083E5108511F0120A727431250BF582E473
:1006CB003400F583E004F07431250BF582E434003B
:1006DB00F583E0FF9016B6E493FEEFC39E401F74C4
:1006EB0031250BF582E43400F583E4F0E513F4FFD8
:1006FB00E512F4FE900092E05EF0A3E05FF075F07F
:10070B0002E50BA4241BF582E5F03400F583E4F03D
:10071B00A3F07400250BF582E43400F583E4F07547
:10072B00F002E50BA42436F582E5F03400F583E402
:10073B00F0A3F075F002E50BA42456F582E5F03436
:10074B0000F583E4F0A3F0C20322E5347003020A40
:10075B000AE53E7003020A0A900072E0C3940F7F11
:10076B000150027F00EF25E0FF900071E0C3940F72
:10077B007E0150027E00EE4FFF900073E0C3940F9A
:10078B007E0150027E00EE25E025E04FFF900074C5
:10079B00E0C3940F7E0150027E00EE33333354F8E6
:1007AB004FFF900075E0C3940F7E0150027E00EE68
:1007BB00C454F04FFF900076E0C3940F7E015002BB
:1007CB007E00EEC43354E04FFF900077E0C3940FEC
:1007DB007E0150027E00EEC4333354C04FFF9000B5
:1007EB0078E0C3940F7E0150027E00EEC4333333A6
:1007FB0054804F90006CF090007AE0C3940F7F010F
:10080B0050027F00EF25E0FF900079E0C3940F7E4C
:10081B000150027E00EE4FFF90007BE0C3940F7EF1
:10082B000150027E00EE25E025E04FFF90007CE0BA
:10083B00C3940F7E0150027E00EE33333354F84FD6
:10084B00FF90007DE0C3940F7E0150027E00EEC44A
:10085B0054F04FFF90007EE0C3940F7E0150027E58
:10086B0000EEC43354E04FFF90007FE0C3940F7E43
:10087B000150027E00EEC4333354C04FFF90008012
:10088B00E0C3940F7E0150027E00EEC43333335429
:10089B00804F90006DF0900082E0C3940F7F015069
:1008AB00027F00EF25E0FF900081E0C3940F7E01F3
:1008BB0050027E00EE4FFF900083E0C3940F7E0149
:1008CB0050027E00EE25E025E04FFF900084E0C350
:1008DB00940F7E0150027E00EE33333354F84FFFFA
:1008EB00900085E0C3940F7E0150027E00EEC4544D
:1008FB00F04FFF900086E0C3940F7E0150027E0004
:10090B00EEC43354E04FFF900087E0C3940F7E0199
:10091B0050027E00EEC4333354C04FFF900088E08A
:10092B00C3940F7E0150027E00EEC43333335480E8
:10093B004F90006EF090008AE0C3940F7F0150023D
:10094B007F00EF25E0FF900089E0C3940F7E0150FC
:10095B00027E00EE4FFF90008BE0C3940F7E0150A0
:10096B00027E00EE25E025E04FFF90008CE0C39463
:10097B000F7E0150027E00EE33333354F84FFF905D
:10098B00008DE0C3940F7E0150027E00EEC454F044
:10099B004FFF90008EE0C3940F7E0150027E00EE5D
:1009AB00C43354E04FFF90008FE0C3940F7E01508F
:1009BB00027E00EEC4333354C04FFF900090E0C36F
:1009CB00940F7E0150027E00EEC433333354804FBC
:1009DB0090006FF0E4F534120DE8E4F50AF50BF531
:1009EB000AF50B7470250BF5827400350AF583E458
:1009FB00F0050BE50B7002050A6421450A70E42231
:100A0B00EF8DF0A4A8F0CF8CF0A428CE8DF0A42EFF
:100A1B00FE22BC000BBE0029EF8DF084FFADF0224F
:100A2B00E4CCF875F008EF2FFFEE33FEEC33FCEE61
:100A3B009DEC984005FCEE9DFE0FD5F0E9E4CEFD54
:100A4B0022EDF8F5F0EE8420D21CFEADF075F00827
:100A5B00EF2FFFED33FD4007985006D5F0F222C380
:100A6B0098FD0FD5F0EA22C5F0F8A3E028F0C5F009
:100A7B00F8E582158270021583E038F02275F008D4
:100A8B00758200EF2FFFEE33FECD33CDCC33CCC5CB
:100A9B008233C5829BED9AEC99E58298400CF582E6
:100AAB00EE9BFEED9AFDEC99FC0FD5F0D6E4CEFB58
:100ABB00E4CDFAE4CCF9A88222B800C1B90059BA46
:100ACB00002DEC8BF084CFCECDFCE5F0CBF9781874
:100ADB00EF2FFFEE33FEED33FDEC33FCEB33FB106E
:100AEB00D703994004EB99FB0FD8E5E4F9FA227888
:100AFB0018EF2FFFEE33FEED33FDEC33FCC933C99A
:100B0B0010D7059BE99A4007EC9BFCE99AF90FD8A3
:100B1B00E0E4C9FAE4CCFB2275F010EF2FFFEE33C3
:100B2B00FEED33FDCC33CCC833C810D7079BEC9A02
:100B3B00E899400AED9BFDEC9AFCE899F80FD5F08B
:100B4B00DAE4CDFBE4CCFAE4C8F922EB9FF5F0EA4A
:100B5B009E42F0E99D42F0E89C45F0227401FF3380
:100B6B0095E0FEFDFC080808E6CF2FF618E6CE3E12
:100B7B00F618E6CD3DF618E6CC3CF622D083D082B3
:100B8B00F8E4937012740193700DA3A393F874019E
:100B9B0093F5828883E4737402936860EFA3A3A335
:100BAB0080DF8D14D2B4D2A3D2A2EF120B870BE449
:100BBB00000BF5010BF9020C05030C11040C1B05C2
:100BCB000C25060C2B070C33080C3D090C652D0C62
:100BDB0049480C555000000C75D2A1D2A0D281D23D
:100BEB0080D2A7D2A6C2A5020C83C2A18034D2A107
:100BFB00D2A0C281D280D2A7806AD2A1D2A0D28148
:100C0B00D280C2A7805EC2A1D2A0D281C280802A2C
:100C1B00D2A1C2A0D281D2808020D2A1C2A0800C4E
:100C2B00D2A1D2A0D2818048D2A1D2A0D281D2802F
:100C3B008014D2A1D2A0D281D280C2A78016C2A129
:100C4B00D2A0D281C280D2A7800AD2A1D2A0C28167
:100C5B00C280D2A7D2A6D2A5801EC2A1C2A0C28139
:100C6B00C280C2A7C2A6D2A5800EC2A1C2A0C28159
:100C7B00C280C2A7C2A6C2A5E514B40107C2B4D2F2
:100C8B00A3D2A222E514B40207D2B4C2A3D2A222E9
:100C9B00E5146403702CC2A1C2A0C281C280C2A79A
:100CAB00C2A6C2A5E53624FF92A7E53724FF92A082
:100CBB00E53824FF9281E53924FF9280D2B4D2A388
:100CCB00C2A22290FE94E04402F090FE40E4F0A316
:100CDB00F0A3F0A3F0A3F0A3F0A3F0A3F0A3F0A371
:100CEB00F0A3F0A3F0A3F0A3F0A3F0A3F090FE60A9
:100CFB00F0A3F0A3F0A3F0A3F0A3F0A3F0A3F09064
:100D0B0016AB9390FE77F09016ACE49390FE76F0D2
:100D1B009016ADE49390FE75F09016AEE49390FEB2
:100D2B0074F09016A6E493F516740193F5179016CC
:100D3B00B0E4936061E4F50A9016FBE493FFE50AD7
:100D4B00C39F505274017E00A80A088005C333CE9E
:100D5B0033CED8F9FFE5165EFEE5175F4E60339094
:100D6B00FE72C083C082E0FCA3E0FDE50A90169AF8
:100D7B0093FF74017E00A807088005C333CE33CEE2
:100D8B00D8F9FFEC4EFEED4FFFD082D083EEF0A3EF
:100D9B00EFF0050A80A243D480D2BD1213E4901663
:100DAB00FBE493F51512142DD202C20012007E90B3
:100DBB0016FCE493FFD394035005750A058005EFE9
:100DCB002404F50AE50A600F3000F912158E150A96
:100DDB00C20012007E80ED1214EEC2022290006C53
:100DEB00E06003020ED4A3E0F46003020ED4C3E56B
:100DFB003394E8E53294035003020ED4E4F532F554
:100E0B003390006EE06446701FE52F700E752F0156
:100E1B00F52E753501F53DF53F800DE4F52FF52EDB
:100E2B00F535F53DF53AF53FE52F64016003020E0C
:100E3B00BD7F011211C590006EE0FFB44420E4F5B4
:100E4B002CF52DF529E535B401057535028063E5E3
:100E5B0035B4020575350380597535018054EFB4EF
:100E6B00430EE53D7005753D018047E4F53D80423D
:100E7B00EFB40D0EE53F7005753F018035E4F53F8E
:100E8B008030EFB4162CE4F52CF52DC3E52E6480E1
:100E9B0094895007052E7529018005E4F52EF52957
:100EAB00AF2EEF3395E0FE7C007D3C120A0B8E30AB
:100EBB008F3190006EE0B415107F011211C5E53A29
:100ECB007004753A0122E4F53A22900092E0FEA3F9
:100EDB00E0FF4E7003020FA5E5286003020FA87513
:100EEB002801FCFDEF5404FFE4FEEF601FE52F70BB
:100EFB000E752F01F52E753501F53DF53F800DE48F
:100F0B00F52FF52EF535F53DF53AF53FE52F640157
:100F1B006003020FA87F011211C5900092E0FAEA5C
:100F2B005408601DE4F52CF52DF529E535B40104C5
:100F3B0075350222E535B40204753503227535018A
:100F4B0022EA5404602DE4F52CF52DC3E52E6480C4
:100F5B0094895007052E7529018005E4F52EF52996
:100F6B00AF2EEF3395E0FE7C007D3C120A0B8E30EA
:100F7B008F3122900092E0FAEA5402600CE53D704A
:100F8B0004753D0122E4F53D22EA5401600FE53F73
:100F9B007004753F0122E4F53F22E4F52822E52F8A
:100FAB006401600302104A753601D3E5319400E504
:100FBB0030940040057537018003E4F537E53D605B
:100FCB0007753801D2878005E4F538C287E53F60A5
:100FDB0007753901D2838005E4F539C283E535B451
:100FEB000108D293C292C2918018E535B40208C2AF
:100FFB0093D292C291800BE535B40306C293C29291
:10100B00D291C3E52D94C8E52C9400501B052DE51A
:10101B002D7002052CE5297002801DC3E52E64801E
:10102B0094814002800B8010C3E52E648094814034
:10103B0007852E2A752B4822752A5085352B22C2FF
:10104B0093C292C291C287C283E4F535F53DF53F59
:10105B00F52EF530F531752A2D752B2DF536F53727
:10106B00F538F53922C0E0C0F0C083C082C0D0751E
:10107B00D000C000C001C002C003C004C005C00640
:10108B00C007053BE53BD394964006753E01753B87
:10109B0000E47B32FAF9F8AF27AE26AD25AC24126B
:1010AB000AC4AC00AD01AE02AF03EC4D4E4F600372
:1010BB0012155B7824120B677BC07A2779097800AD
:1010CB00C3120B5650377527007526007525007512
:1010DB002400E5319400E53094004021E5311531D1
:1010EB0070021530AE30AF317C007D3C120A1DEF23
:1010FB0004F52EE53145307004F52FF52E0533E55B
:10110B003370020532D007D006D005D004D003D0FF
:10111B0002D001D000D0D0D082D083D0F0D0E0323A
:10112B0078FFE4F6D8FD9000007F007E04E4F0A386
:10113B00DFFCDEFA75813F021180021330E493A3CA
:10114B00F8E493A34003F68001F208DFF48029E46E
:10115B0093A3F85407240CC8C333C4540F4420C8BA
:10116B00834004F456800146F6DFE4800B01020451
:10117B0008102040809012BCE47E019360BCA3FF5A
:10118B00543F30E509541FFEE493A360010ECF5486
:10119B00C025E060A840B8E493A3FAE493A3F8E475
:1011AB0093A3C8C582C8CAC583CAF0A3C8C582C8E1
:1011BB00CAC583CADFE9DEE780BEBF011D90FF14FD
:1011CB0074C2F090FF9C7424F075DE2075DF1075EF
:1011DB00DD9775220075230A803EBF021D90FF1418
:1011EB0074C2F090FF9C7424F075DE2075DF1075CF
:1011FB00DD97752200752314801EBF031B90FF140F
:10120B0074C2F090FF9C7424F075DE2075DF1075AE
:10121B00DD9775220075231ED3E5239400E5226428
:10122B008094804016E523152370021522E5234593
:10123B0022700875DD0790FF1404F022E4F580900E
:10124B00FF0004F090FF01F090FF02F090FF03F01D
:10125B0090FF04F090FF05F090FF06F090FF07F071
:10126B0090FF08F090FF09F090FF0AF090FF0BF051
:10127B0090FF0CF090FF0DF090FF0EF090FF0FF031
:10128B00E4F5A090FF1004F090FF11F090FF12F026
:10129B0090FF13F090FF14F090FF15F090FF16F0F5
:1012AB0090FF17F0E4F5B090FF1C04F090FF1DF0D9
:1012BB0022012A00012B0001360001370001380002
:1012CB00013900012F00013500013D00012E000204
:1012DB00300000013A00013F00022C000001290000
:1012EB0001210002220000013B00013E00013C00F5
:1012FB000134000232000004240000000001280029
:10130B0042000503E842006003E84100550A410032
:10131B004A0201150002160000C102C101C10042C0
:10132B000092000000E4F508F50912164090FE92B9
:10133B007410F0121247D2AF120CCE121474121694
:10134B006B1215FC12161312167F7FE87E03120028
:10135B002E7F031211C53000051215BDC200120EEF
:10136B00D5120755120FA9E4FF1211C57F0A7E0093
:10137B0012002E0509E509AE087002050814D39476
:10138B00C8EE6480948040CEE4F508F50980C7C0B0
:10139B00E0C083C082C0D0539FFDE53C602CE53B91
:1013AB00D39469400375340074702534F582E434AA
:1013BB0000F583E53BF0753B000534E534D3942110
:1013CB004003753400753E008006753C01753B008B
:1013DB00D0D0D082D083D0E032E4FDFC9016FBE479
:1013EB0093FFEDC39F503A74017E00A8050880055A
:1013FB00C333CE33CED8F9FFE5165EFEE5175F4E4D
:10140B00600F74252DF582E43400F583ECF00C802D
:10141B000D74252DF582E43400F58374FFF00D80F7
:10142B00BB2205159016FBE493FFE515C39F400700
:10143B00D200D201E4F515E51745167003D201224F
:10144B0074017E00A815088005C333CE33CED8F9BE
:10145B00FFE5165EFEE5175F4E60C7E51590169A21
:10146B0093F5D500000000002290FF1174C1F0909D
:10147B00FF10F090FF01F090FF00F090FF17F0903D
:10148B00FF16F090FF15F090FF1CF090FF13F090FB
:10149B00FF12F0C2A1C2A0C281C280C2A7C2A6C263
:1014AB00A5D2B4D2A3D2A222C0E0C0F0C083C08226
:1014BB00C0D075D000C000C001C002C003C004C0C2
:1014CB0005C006C007121527D007D006D005D004DB
:1014DB00D003D002D001D000D0D0D082D083D0F0B6
:1014EB00D0E032E4FF9016F9E493FEEFC39E502B4D
:1014FB0075F002EFA42462F582E5F03400F583E089
:10150B00FCA3E0FD75F002EFA4244BF582E5F0346B
:10151B0000F583ECF0A3EDF00F80CA2253D4DF74F7
:10152B00252515F582E43400F583E075F002A4243B
:10153B0011F582E5F03400F583E5D7F0A3E5D6F09D
:10154B0012000630020320000620010343D4402280
:10155B00E53A702BE521B401067D01AF2A8009E540
:10156B0021B402097D02AF2B120BAD800FE521B424
:10157B00030A7D037F58120BADE4F52105212212DE
:10158B00165622E4FF75F002EFA42411F582E5F064
:10159B003400F583E0FCA3E0FD75F002EFA42462B8
:1015AB00F582E5F03400F583ECF0A3EDF00FBF0509
:1015BB00D422121692E4F50A9016FBE493FFE50A87
:1015CB00C39F5009AF0A12008E050A80EB9016AF2D
:1015DB00E493600312007E2290FF1074C1F090FF21
:1015EB00A07420F075CC06759E0275CEFF75CD9854
:1015FB002290FF1D7469F090FEB4E04404F090FE5D
:10160B00BA7402F043D8012290FF0774C1F090FF27
:10161B0003F090FF0BF090FF0AF090FF09F022EF20
:10162B001FAA0670011E4A600BE4FDEDC39418500F
:10163B00EE0D80F722758E1190FE917401F090FEE5
:10164B00AA74FFF090FEA474C2F022C2A1C2A0C281
:10165B0081C280C2A7C2A6C2A5D2B4D2A3D2A222F3
:10166B00E490FE80F0F589758CFF758A7B43A802A8
:10167B0043881022752A08752B08753601753701BA
:10168B0075380175390122D201E5D420E6FB220021
:10169B0001020307090A0B0C0D0E0F0F04001400B7
:1016AB00300A20060100012C006402020050000ADF
:1016BB00000A000A000A000A000A000A000A000ACF
:1016CB00000A000A000A000A000A000A000A007851
:1016DB000078003C00780078007800780078003CB7
:1016EB00003C003C003C0078007800780078050F47
:0216FB000C00E1
:00000001FF
