:0300000002166382
:1016630078FFE4F6D8FD9000007F007E04E4F0A349
:0A167300DFFCDEFA75813E0216B8B6
:10026B00012A00012B000136000137000138000183
:10027B002F00013500013C00012E0002300000016F
:10028B003900022C0000012900012200012300018A
:10029B002400013A00013D00013B00013400023211
:0802AB00000004250000000022
:101CFD00EF1FAA0670011E4A600BE4FDEDC3944769
:051D0D0050EE0D80F70F
:011D120022AE
:10002E008F828E83E5821582AE83700215834E60B9
:0B003E00097F147E00121CFD80EA22E6
:101CCD0090FF1074C1F090FFA07420F075CC0675D4
:091CDD009E0275CEFF75CD982220
:081D8B00E0FF121D93A3E0FF2D
:0A1D93008F993099FDC2997F00225C
:101A230090FF1174C1F090FF10F090FF01F090FF50
:101A330000F090FF17F090FF16F090FF15F090FF65
:101A43001CF090FF13F090FF12F0C2A1C2A0C2815C
:0F1A5300C280C2A7C2A6C2A5D2B4D2A3D2A22279
:101D2900C2A1C2A0C281C280C2A7C2A6C2A5D2B4A2
:051D3900D2A3D2A2229A
:10106600D2B4D2A3D2A2EF24B8700302111324F88B
:10107600700302111F2450B40A00400302112F907E
:10108600108CF82828730210AA0210BB0210BF02A7
:1010960010CB0210DB0210E50210EF0210F5021071
:1010A600FD021107D2A1D2A0D281D280D2A7D2A6A8
:1010B600C2A502113DC2A18038D2A1D2A0C281D25E
:1010C60080D2A7800AD2A1D2A0D281D280C2A7C2E2
:1010D600A6D2A58062C2A1D2A0D281C280802AD225
:1010E600A1C2A0D281D2808020D2A1C2A0800CD27F
:1010F600A1D2A0D2818038D2A1D2A0D281D28080C2
:1011060014D2A1D2A0D281D280C2A78016C2A1D207
:10111600A0D281C280D2A7800AD2A1D2A0C281C2A7
:1011260080D2A7D2A6D2A5800EC2A1C2A0C281C279
:1011360080C2A7C2A6C2A5BD0107C2B4D2A3D2A2CD
:1011460022BD0207D2B4C2A3D2A222ED6403702943
:10115600C2A1C2A0C281C280C2A7C2A6C2A5E536EC
:10116600B40102D2A0E537B40102D281E538B40158
:0A11760002D280D2B4D2A3C2A2229A
:101BB500E539702BE522B401067D01AF2A8009E5E0
:101BC50022B402097D02AF2B121066800FE522B404
:101BD500030A7D037F58121066E4F52205222212BE
:021BE5001D29B8
:011BE70022DB
:101BE800E4F516F51790FF1474C2F090FF9C742466
:101BF800F075DE2075DF1075DD9775230175DD97AB
:101C08007F647E0012002E75DD0790FF147401F0CA
:011C180022A9
:10150500900092E0FEA3E04E70030215B8E524605A
:10151500030215BB752401FCFDFFEE5408FE601B9C
:10152500E52F700C752F01F52E753501F53C800BF7
:10153500E4F52FF52EF535F53CF539E52F64017009
:1015450075121BE8900092E0FAEA5404601DE4F578
:101555002CF52DF529E535B4010475350222E5355F
:10156500B402047535032275350122EA5402600C74
:10157500E53C7004753C0122E4F53C22900092E0C4
:10158500FEEE54016030E4F52CF52DC3E52E6480A4
:1015950094895007052E7529018005E4F52EF52956
:1015A500AF2EEF3395E0FE7C007D3C1200B98E3006
:0615B5008F3122E4F52451
:0115BB00220D
:101D3E00E490FE80F0F589758CFF758A7B43A802CE
:041D4E004388102294
:101CE60090FF1D7469F090FEB4E04404F090FEBAD3
:071CF6007402F043D8012243
:03000B0002144A92
:10144A00C0E0C0F0C083C082C0D075D000C000C068
:0D145A0001C002C003C004C005C006C007E9
:10146700053AE53AD394964006753D01753A00E48E
:101477007B32FAF9F8AF28AE27AD26AC251201A8C2
:10148700AC00AD01AE02AF03EC4D4E4F6003121B33
:10149700B5782512024B7BC07A2779097800C312E9
:1014A700023A503775280075270075260075250004
:1014B700E5319400E53094004021E53115317002A3
:1014C7001530AE30AF317C007D3C1200CBEF04F518
:1014D7002EE53145307004F52FF52E0533E53370D1
:0314E700020532C9
:1014EA00D007D006D005D004D003D002D001D00056
:0B14FA00D0D0D082D083D0F0D0E03200
:03008B00021995C2
:10199500C0E0C083C082C0D0539FFDE53B602CE50D
:1019A5003AD39469400375340074702534F582E4A4
:1019B5003400F583E53AF0753A000534E534D394FF
:1019C500214003753400753D008006753B01753A6D
:0A19D50000D0D0D082D083D0E032E1
:100AA800E5347003020DA7E53D7003020DA7900021
:100AB80072E0C3940F50047F0080027F01EF25E0AD
:100AC800FF900071E0C3940F50047E0080027E0105
:100AD800EE4FFF900073E0C3940F50047E00800235
:100AE8007E01EE25E025E04FFF900074E0C3940FEF
:100AF80050047E0080027E01EE33333354F84FFFFA
:100B0800900075E0C3940F50047E0080027E01EED1
:100B1800C454F04FFF900076E0C3940F50047E0059
:100B280080027E01EEC43354E04FFF900077E0C3AB
:100B3800940F50047E0080027E01EEC4333354C00B
:100B48004FFF900078E0C3940F50047E0080027E2F
:100B580001EEC433333354804F90006CF090007A28
:100B6800E0C3940F50047F0080027F01EF25E0FF6F
:100B7800900079E0C3940F50047E0080027E01EE5D
:100B88004FFF90007BE0C3940F50047E0080027EEC
:100B980001EE25E025E04FFF90007CE0C3940F5064
:100BA800047E0080027E01EE33333354F84FFF9009
:100BB800007DE0C3940F50047E0080027E01EEC4E5
:100BC80054F04FFF90007EE0C3940F50047E0080E5
:100BD800027E01EEC43354E04FFF90007FE0C394DF
:100BE8000F50047E0080027E01EEC4333354C04FA0
:100BF800FF900080E0C3940F50047E0080027E01C5
:100C0800EEC433333354804F90006DF0900082E08F
:100C1800C3940F50047F0080027F01EF25E0FF900E
:100C28000081E0C3940F50047E0080027E01EE4FE5
:100C3800FF900083E0C3940F50047E0080027E0181
:100C4800EE25E025E04FFF900084E0C3940F5004A8
:100C58007E0080027E01EE33333354F84FFF90005C
:100C680085E0C3940F50047E0080027E01EEC454D8
:100C7800F04FFF900086E0C3940F50047E0080027E
:100C88007E01EEC43354E04FFF900087E0C3940F19
:100C980050047E0080027E01EEC4333354C04FFFFF
:100CA800900088E0C3940F50047E0080027E01EE1D
:100CB800C433333354804F90006EF090008AE0C301
:100CC800940F50047F0080027F01EF25E0FF900021
:100CD80089E0C3940F50047E0080027E01EE4FFF2E
:100CE80090008BE0C3940F50047E0080027E01EEDA
:100CF80025E025E04FFF90008CE0C3940F50047E60
:100D08000080027E01EE33333354F84FFF90008D9C
:100D1800E0C3940F50047E0080027E01EEC454F0BC
:100D28004FFF90008EE0C3940F50047E0080027E37
:100D380001EEC43354E04FFF90008FE0C3940F508E
:100D4800047E0080027E01EEC4333354C04FFF900E
:100D58000090E0C3940F50047E0080027E01EEC430
:100D680033333354804F90006FF0E4F53412137E20
:0A0D780090006C121D8BA3121D8B5E
:100D8200E4F514F515F514F51574702515F582744E
:100D9200003514F583E4F00515E5157002051464B9
:050DA20021451470E47E
:010DA7002229
:10137E0090006CE06003021449A3E0F460030214D1
:10138E0049C3E53394B8E532940B5003021449E493
:10139E00F532F53390006EE0B4461BE52F700C75F8
:1013AE002F01F52E753501F53C800BE4F52FF52E4A
:1013BE00F535F53CF539E52F6401706D121BE8909B
:1013CE00006EE0FFB44420E4F52CF52DF529E5354B
:1013DE00B401057535028051E535B4020575350346
:1013EE0080477535018042EFB4430EE53C700575BC
:1013FE003C018035E4F53C8030EFB4162CE4F52C3E
:10140E00F52DC3E52E648094895007052E752901AC
:10141E008005E4F52EF529AF2EEF3395E0FE7C0026
:10142E007D3C1200B98E308F3190006EE0B40D0B02
:0C143E00E539700475390122E4F539220B
:101D520090FF0774C1F090FF0BF090FF0AF090FF24
:031D620009F02263
:1015BC00E52F6401600302164D753601E53C6007AA
:1015CC00753701D2878005E4F537C287D3E53194AE
:1015DC0000E530940040057538018003E4F538E5EA
:1015EC0035B40108D293C292C2918018E535B40289
:1015FC0008C293D292C291800BE535B40306C29314
:10160C00C292D291C3E52D94C8E52C9400501B05D1
:10161C002DE52D7002052CE5297002801DC3E52EE9
:10162C00648094814002800B8010C3E52E6480940A
:10163C00814007852E2A752B4822752A5085352B1B
:10164C0022E4F535F53CF52EF530F531F52AF52B80
:07165C00F536F537F53822E1
:101B1400121D1390FE927410F0121784D2AF12119A
:101B240080121A23121D3E121CE6121D52300105AA
:101B3400121C6CC201121505120AA81215BC7F0AE8
:071B44007E0012002E80E676
:01000A0022D3
:101C1900E4FF75F002EFA4241BF582E5F03400F52A
:101C290083E0FCA3E0FD75F002EFA42464F582E5EE
:0E1C3900F03400F583ECF0A3EDF00FBF04D4FF
:011C4700227A
:10186C000001020307090A0B0C0D0E0F0F000000FC
:10187C000014000078090A200500640202005000E0
:10188C000A000A000A000A000A000A000A000A00FC
:10189C000A000A000A000A000A000A000A000A00EC
:1018AC00780078007800780078007800780078006C
:1018BC007800780078007800780078007800780458
:0918CC000F0C000060C878FF0455
:1002B30042005007D042005203E842001900644153
:0702C30000040A41004F0294
:0100120020CD
:1002CA00C1014200920000011100C185C104020D62
:1002DA000000C102C100C10302120000020F0000A7
:0F02EA00010C00010800010900010A00010B00CE
:101C9000D310AF01C3C0D075FDF075FC0F8EFA8F65
:101CA000F975FDD275FC2D75FDE175FC1ED0D09245
:021CB000AF2261
:101C4800D310AF01C3C0D08DFB75FDF075FC0F8EAE
:101C5800FA8FF975FDB475FC4B75FDE175FC1ED066
:041C6800D092AF2245
:1019DF00D310AF01C3C0D08E158F168D178B188AF9
:0319EF0019891A39
:1019F200E4FCECC3951750240516E516AE157002EB
:101A0200051514FFAB18051AE51AAA197002051973
:0C1A120014F912008EFD121C480C80D646
:051A1E00D0D092AF22C0
:10193900153E153E153EA83EA60308A60208A601B7
:10194900153EA83EA605153E153EA83EA60608A6C4
:1019590007A83E0808E616602CA83E0806E6188681
:101969000670010614F5828E83E493FFE53E240395
:10197900F88603080806E618860270010614F9EFCE
:0C1989001200A780CCE53E2406F53E22AB
:101B8100EF7B017AFE79407D107012FF7E031219FE
:101B9100DF7B017AFE79607D087F1080117F407EB6
:101BA100031219DF7B017AFE79607D087F507E0385
:041BB1001219DF2204
:101A6200153EA83EA607A83EE67B017AFE79407D98
:101A7200107E037012FF1219397B017AFE79607DA4
:101A8200087E037F1080117F401219397B017AFE94
:0E1A920079607D087E037F50121939053E22CF
:1016FD00E4FDFC9018CDE493FFEDC39F50787E0080
:10170D007401A805088005C333CE33CED8F9FFE5A3
:10171D00125EFAE5135F4A603FE50F5EFEE5105F6E
:10172D004E600E74052DF582E43400F583ECF080E7
:10173D000D74052DF582E43400F58374FFF0742BE0
:10174D002DF582E43400F583ECF02437F582E43492
:10175D0000F583EDF00C801A742B2DF582E4340026
:10176D00F58374FFF074052DF582E43400F5837470
:06177D00FFF00D02170051
:011783002243
:1017F900050C9018CDE493FFE50CC39F4033D20547
:10180900D201D202E4F50C9018CF93640170223012
:10181900041FB20020000C9018819390FE76F07F8F
:1018290000800B901882E49390FE76F07F01121AE3
:1018390062E51345127003D202227E007401A80CDE
:10184900088005C333CE33CED8F9FFE5125EFEE535
:10185900135F4E609BE50C90186C93F5D500000062
:031869000000225A
:10129400900094744EF0A37420F090187CE4937042
:1012A4000302137DEF600302135D90187E049370B4
:1012B40002E493600302134FFF9018CBE493FEEF14
:1012C400C39E504875F002EFA4241BF582E5F03468
:1012D40000F583E0FCA3E0FDD3900095E09D900031
:1012E40094E09C402475F002EFA4241BF582E5F001
:1012F4003400F583E0FCA3E0FDD394C8EC940040F3
:1013040008900094ECF0A3EDF00F80AD900095E010
:10131400249CF0900094E034FFF0E0FEA3E0FF7C16
:10132400007D641201207C007D641200B990009459
:10133400EEF0A3EFF0C39464EE64809480403A909E
:101344000094E0F50DA3E0F50E801990187EE49367
:10135400F50D740193F50E800BE50DC313F50DE542
:101364000E13F50E53D4BFC201C20543D440300559
:09137400FDC20112006A3001FD06
:01137D00224D
:0A0DA80090187CE4937003021065BC
:100DB200E4F51EF51F75F002E50BA4241BF582E590
:100DC200F03400F583E0F51EA3E0F51FE50A6003A9
:100DD200020EAB90187D93FFC3E50E9FFFE50D94C5
:100DE20000FEC3E51F9FE51E9E505AE50C90186C4D
:100DF200932440F582E434FEF583E4F0E50C901888
:100E02006C93FF54017012EFC3132460F582E43433
:100E1200FEF583E054F0FF8015E50C90186C93C347
:100E2200132460F582E434FEF583E0540FFFE50CF1
:100E320090186C93FEC3132460F582E434FEF583AC
:100E4200EFF00217F97508017509FFE50C90186CAF
:100E520093FF54017014EFC3132460F582E434FE4F
:100E6200F583E054F04401FF8017E50C90186C9371
:100E7200C3132460F582E434FEF583E0540F44107A
:100E8200FFE50C90186C93C3132460F582E434FEE2
:100E9200F583EFF0E50C90186C932440F582E4346E
:100EA200FEF58374FFF0050A22E50A64016003027D
:100EB2000F6F90187D937E00250EFFEE350DFED349
:100EC200E51F9FE51E9E5003020F5AE50C90186C19
:100ED20093FF5401FD7C00700EEF132460F582E451
:100EE20034FEF583E08013E50C90186C93C3132451
:100EF20060F582E434FEF583E0C4540FFF8F11C322
:100F0200EF940774809480504F0511ED4C7019E5F1
:100F12000C90186C93C3132460F582E434FEF583BD
:100F2200E054F04511FF801CE50C90186C93C3133C
:100F32002460F582E434FEF583E0540FFFE511C42A
:100F420054F04FFFE50C90186C93C3132460F582A4
:100F5200E434FEF583EFF022050AE50C90186C9359
:100F62002440F582E434FEF5837480F022E50A64BD
:100F720002600302104EC3E5099508FFE49400FEE7
:100F8200D3EF9400EE64809480500302104E9018C8
:100F92007DE493F97E00250EFFEE350DFEC3E51FBD
:100FA2009FE51E9E403FE509FD2508FFE433A2E7C9
:100FB20013EF13F508FF7E00C3ED9FFDE49EFCD303
:100FC200ED9401EC648094804007EF2509FFEE80E8
:100FD20050E50C90186C932440F582E434FEF583BE
:100FE200E509F08067E9FFC3E50E9FFFE50D940078
:100FF200FED3E51F9FE51E9E5052AD087C00ED25F5
:1010020009FFEC33A2E713EF13F509C39DFFE49C3C
:10101200FED3EF9401EE64809480401EED2509FF1B
:10102200EC33A2E713EF13FFE50C90186C93244006
:10103200F582E434FEF583EFF022E50C90186C9310
:101042002440F582E434FEF583E508F0E4F50A1263
:1010520017F9050B9018CBE493FFE50BC39F4003F0
:03106200E4F50BA7
:011065002268
:101B4B0090FE40E4F0A3F0A3F0A3F0A3F0A3F0A366
:101B5B00F0A3F0A3F0A3F0A3F0A3F0A3F0A3F0A3E2
:101B6B00F0A3F090FE60F0A3F0A3F0A3F0A3F0A31A
:061B7B00F0A3F0A3F0222C
:1011800090FE94E04402F0121B4B7F007E03121C81
:1011900090901880E49390FE77F0901881E49390FB
:1011A000FE76F0901883E49390FE75F0901884E436
:1011B0009390FE74F0901878E493F512740193F50F
:1011C0001390187AE493F50F740193F51043D480CB
:1011D000D2BD1216FD9018CDE493F50C1217F9D27A
:1011E00003C20112006AC2049018CEE493FFD394A4
:1011F000037480948050057514058005EF2403F571
:1012000014E514600B3001F9121C1912006680F10C
:10121000E4FF1212949018CFE493604AE4FF121B8B
:1012200081121B4B901882E49390FE76F09018CEBA
:10123000E493FFD394037480948050057514058063
:1012400005EF2403F514E514600B3001F9121C19A5
:1012500012006680F17F011212947F01121B817FC0
:1012600000121A62D2049018CEE493FFD394037450
:1012700080948050057514058005EF2403F514E56E
:1012800014600B3001F9121C1912006680F1121A59
:03129000DBC203BB
:011293002238
:1018D50053D4DFC39018D274019395D6E49395D76A
:1018E500403A742B250C200016F582E43400F5836C
:1018F500E075F002A4241BF582E5F034008014F5B0
:1019050082E43400F583E075F002A42423F582E532
:10191500F03400F583E5D7F0A3E5D6F030050512E0
:1019250017F98003120DA8300303200106200203D6
:0419350043D4402235
:0A007E00D202E5D420E6FBC2012205
:040066001514C201AA
:09006A00300205C20243D4402219
:101D650030020FC202900037E0B5D503D2012243FD
:031D7500D4402235
:101ADB00E4FF9018CBE493FEEFC39E502B75F002FE
:101AEB00EFA42464F582E5F03400F583E0FCA3E079
:101AFB00FD75F002EFA42454F582E5F03400F58374
:081B0B00ECF0A3EDF00F80CA1D
:011B130022AF
:101C6C00121C1912007EE4F5149018CDE493FFE5D4
:101C7C0014C39F5009AF14120380051480EB12009B
:041C8C000A02006ADE
:020380008F15D7
:10038200E4FBFAF516F517C206C207C208F51AF51C
:100392001BF51CF51DFE04A807088005C333CE33E8
:1003A200CED8F9F5198E18C3740F9515FFE4940091
:1003B200FEEF25E0FFEE33FE74AB2FF58274183E9C
:1003C200F583E493FC740193FD900004E0FF7E004A
:1003D2001200B97C007D0A1200CBAA06AB07C374D7
:1003E2000F9515FFE49400FEEF25E0FFEE33FE7457
:1003F2008B2FF58274183EF583E493F516740193FE
:10040200F51774052515F582E43400F583E0FF74D1
:100412002B2515F582E43400F583E0FEB50706EFDF
:10042200F46002D2078E15E515F47003020AA79054
:1004320018CFE493700302055875F002E515A42461
:100442001BF582E5F03400F583E0FEA3E0FF90188F
:10045200D0E493FC740193FDC3EF9DEE9C401F75A5
:10046200F002E515A42423F582E5F03400F583E0DB
:10047200FEA3E0C39DEE9C4005C20802055875F03C
:1004820002E515A42423F582E5F03400F583E0FEAD
:10049200A3E0FF9018D4E493FDEFA805088005CEF1
:1004A200C313CE13D8F9F51D8E1C75F002E515A401
:1004B2002423F582E5F03400F583A3E025E0FF056F
:1004C20082D5820215831582E033FE75F002E515AE
:1004D200A4241BF582E5F03400F583E0FCA3E0FDE3
:1004E200C39FEC9E403975F002E515A42423F582E2
:1004F200E5F03400F583A3E025E0FF0582D5820212
:1005020015831582E033FEC3ED9FFFEC9EFEC3EF21
:10051200951DEE951C4004D208803BC208803775B9
:10052200F002E515A42423F582E5F03400F583A357
:10053200E025E0FF0582D5820215831582E033FEB5
:10054200C3EF9DFFEE9CFEC3EF951DEE951C40048C
:10055200D2088002C20875F002E515A42454F5827F
:10056200E5F03400F583E0FEA3E0FF75F002E51547
:10057200A42464F582E5F03400F583E0FCA3E0C333
:100582009FF51BEC9EF51A901889E4936064FD7C3C
:1005920000AF03AE021200B9D3E51B9FEE6480F8F0
:1005A200E51A6480984049743B2515F582E43400CD
:1005B200F583E004F0743B2515F582E43400F583FD
:1005C200E0FF901888E493FEEFC39E401FE519F404
:1005D200FFE518F4FE900092E05EF0A3E05FF07495
:1005E2003B2515F582E43400F583E4F0D20680025F
:1005F200C206C3E51B9BEA6480F8E51A6480985042
:1006020003020754300741900050E0FEA3E0FF4E82
:1006120070030206BF75F002E515A4243FF582E5DA
:10062200F03400F583E475F00112015675F002E52D
:1006320015A4243FF582E5F03400F583E0FCA3E045
:10064200C39FEC9E4077803C900052E0FEA3E0FF07
:100652004E606A75F002E515A4243FF582E5F03498
:1006620000F583E475F00112015675F002E515A458
:10067200243FF582E5F03400F583E0FCA3E0C39F5C
:10068200EC9E403975F002E515A42454F582E5F09C
:100692003400F583E51A851BF01201567400251506
:1006A200F582E43400F583E4F075F002E515A42444
:1006B2003FF582E5F03400F583E4F0A3F030060361
:1006C2000207439018CCE4932BFFE43AFEC3E51BE8
:1006D2009FEE6480F8E51A648098405874002515EE
:1006E200F582E43400F583E004F074002515F58208
:1006F200E43400F583E0FF901887E493FEEFC39E95
:10070200401C200819900092E04518F0A3E045191A
:10071200F074002515F582E43400F583E4F075F0F9
:1007220002E515A4245CF582E5F03400F583E4F0DB
:10073200A3F0800D74002515F582E43400F583E4FE
:10074200F075F002E515A42411F582E5F0340002FB
:1007520009ACD3E51B9517E5166480F8E51A6480A9
:10076200985003020855900019E0FEA3E0FF4E6086
:100772005D75F002E515A4245CF582E5F03400F520
:1007820083E475F00112015675F002E515A4245CAC
:10079200F582E5F03400F583E0FCA3E0D39FEC9E04
:1007A200402C75F002E515A42454F582E5F03400DE
:1007B200F583E51A851BF012015675F002E515A4C2
:1007C200245CF582E5F03400F583E4F0A3F09018A0
:1007D200CCE493FFC3EB9FFFEA9400FEC3E51B9FAB
:1007E200EE6480F8E51A6480985059743B2515F53B
:1007F20082E43400F583E004F0743B2515F582E4CD
:100802003400F583E0FF901888E493FEEFC39E4026
:100812001FE519F4FFE518F4FE900092E05EF0A3E4
:10082200E05FF0743B2515F582E43400F583E4F0D3
:1008320075F002E515A4243FF582E5F03400F58356
:10084200E4F0A3F074002515F582E43400F583E4A6
:100852000209B1C3E49517FFE49516FEC3E51B9F99
:10086200EE6480F8E51A64809850030209C3D3E568
:100872001B9517E5166480F8E51A64809840030218
:1008820009C375F002E515A42411F582E5F03400E0
:10089200F583E51A851BF012015690188AE493F944
:1008A200FF75F002E515A42411F582E5F03400F598
:1008B20083E0FCA3E0FDD39F7480F8EC6480984051
:1008C2001D90004FE0FF75F002E515A42454F58257
:1008D200E5F03400F583E48FF01201568044E9FF1D
:1008E200C3E49FFFE49400FEC3ED9FEE6480F8EC46
:1008F200648098504175F002E515A42454F582E510
:10090200F03400F583C083C082E0FEA3E0FF9000D4
:100912004FE0FDC3EF9DFFEE9400D082D083F0A3A1
:10092200EFF075F002E515A42411F582E5F034002C
:10093200F583E4F0A3F0743B2515F582E43400F569
:1009420083E004F0743B2515F582E43400F583E07E
:10095200FF901888E493FEEFC39E401F743B251559
:10096200F582E43400F583E4F0E519F4FFE518F4C8
:10097200FE900092E05EF0A3E05FF074002515F5B2
:1009820082E43400F583E4F075F002E515A4243F17
:10099200F582E5F03400F583E4F0A3F075F002E5AA
:1009A20015A4245CF582E5F03400F583E4F0A3F0AD
:1009B20075F002E515A42447F582E5F03400020A39
:1009C200A1901885E493FE740193FF4E605D75F06B
:1009D20002E515A42447F582E5F03400F583E475B9
:1009E200F00112015675F002E515A42447F582E5DF
:1009F200F03400F583E0FCA3E0C39FEC9E402C752D
:100A0200F002E515A42447F582E5F03400F583E40D
:100A1200F0A3F075F002E515A42454F582E5F03454
:100A220000F583E51A851BF0120156743B2515F576
:100A320082E43400F583E004F0743B2515F582E48A
:100A42003400F583E0FF901888E493FEEFC39E40E4
:100A52001F743B2515F582E43400F583E4F0E519B3
:100A6200F4FFE518F4FE900092E05EF0A3E05FF080
:100A720074002515F582E43400F583E4F075F00284
:100A8200E515A4243FF582E5F03400F583E4F0A3F4
:100A9200F075F002E515A4245CF582E5F03400F56A
:050AA20083E4F0A3F065
:010AA700222C
:101CB20090FF1074C1F0D2A090FFA07420F0759E26
:0B1CC2000274FFF5CEF5CD75CC0622B4
:081D9D008F993099FDC29922D3
:101D7800AD07AC068C993099FDC2998D993099FDC3
:031D8800C29922DB
:10178400E4F58090FF0004F090FF01F090FF02F078
:1017940090FF03F090FF04F090FF05F090FF06F037
:1017A40090FF07F090FF08F090FF09F090FF0AF017
:1017B40090FF0BF090FF0CF090FF0DF090FF0EF0F7
:1017C40090FF0FF0E4F5A090FF1004F090FF11F0EB
:1017D40090FF12F090FF13F090FF14F090FF15F0BB
:1017E40090FF16F090FF17F0E4F5B090FF1C04F0A2
:0517F40090FF1DF02232
:03000300020006F2
:0200060080FE7A
:03001300020008E0
:0200080080FE78
:03001B0002000ED2
:02000E0080FE72
:03002300020010C8
:0200100080FE70
:03002B00020016BA
:0200160080FE6A
:03004B0002001898
:0200180080FE68
:0300530002001E8A
:02001E0080FE62
:03005B0002002080
:0200200080FE60
:0300630002002672
:0200260080FE5A
:03007300021AA0CE
:101AA000C0E0C0F0C083C082C0D075D000C000C00C
:101AB00001C002C003C004C005C006C0071218D58B
:101AC000D007D006D005D004D003D002D001D0007A
:0B1AD000D0D0D082D083D0F0D0E03224
:03007B0002002858
:0200280080FE58
:101D1300758E1190FE917401F090FEAA74FFF090FD
:061D2300FEA474C2F022D0
:10167D00021B14E493A3F8E493A34003F68001F254
:10168D0008DFF48029E493A3F85407240CC8C3336E
:10169D00C4540F4420C8834004F456800146F6DF3D
:1016AD00E4800B010204081020408090026BE47E60
:1016BD00019360BCA3FF543F30E509541FFEE49332
:1016CD00A360010ECF54C025E060A840B8E493A3F9
:1016DD00FAE493A3F8E493A3C8C582C8CAC583CA24
:1016ED00F0A3C8C582C8CAC583CADFE9DEE780BEDC
:0102F9000004
:10008E00BB010689828A83E0225002E722BBFE0270
:09009E00E32289828A83E49322A3
:1000A700BB010689828A83F0225002F722BBFE0138
:0200B700F32232
:1000B900EF8DF0A4A8F0CF8CF0A428CE8DF0A42E5B
:0200C900FE2215
:1000CB00BC000BBE0029EF8DF084FFADF022E4CC19
:1000DB00F875F008EF2FFFEE33FEEC33FCEE9DECE2
:1000EB00984005FCEE9DFE0FD5F0E9E4CEFD22ED28
:1000FB00F8F5F0EE8420D21CFEADF075F008EF2F72
:10010B00FFED33FD4007985006D5F0F222C398FD62
:05011B000FD5F0EA22FF
:10012000C2D5EC30E709B2D5E4C39DFDE49CFCEEFA
:1001300030E715B2D5E4C39FFFE49EFE1200CBC3A7
:10014000E49DFDE49CFC80031200CB30D507C3E4A2
:060150009FFFE49EFE2269
:10015600C5F0F8A3E028F0C5F0F8E5821582700234
:060166001583E038F022D1
:10016C0075F008758200EF2FFFEE33FECD33CDCC4A
:10017C0033CCC58233C5829BED9AEC99E5829840CD
:10018C000CF582EE9BFEED9AFDEC99FC0FD5F0D6AA
:10019C00E4CEFBE4CDFAE4CCF9A88222B800C1B9D4
:1001AC000059BA002DEC8BF084CFCECDFCE5F0CB12
:1001BC00F97818EF2FFFEE33FEED33FDEC33FCEB4B
:1001CC0033FB10D703994004EB99FB0FD8E5E4F906
:1001DC00FA227818EF2FFFEE33FEED33FDEC33FCF3
:1001EC00C933C910D7059BE99A4007EC9BFCE99AE7
:1001FC00F90FD8E0E4C9FAE4CCFB2275F010EF2F2C
:10020C00FFEE33FEED33FDCC33CCC833C810D7072B
:10021C009BEC9AE899400AED9BFDEC9AFCE899F866
:0E022C000FD5F0DAE4CDFBE4CCFAE4C8F922F9
:10023A00EB9FF5F0EA9E42F0E99D42F0E89C45F01A
:01024A002291
:10024B007401FF3395E0FEFDFC080808E6CF2FF69E
:10025B0018E6CE3EF618E6CD3DF618E6CC3CF62277
:00000001FF
