:03000000021621C4
:1016210078FFE4F6D8FD9000007F007E04E4F0A38B
:0A163100DFFCDEFA75813B0216763D
:10026B00012900012A00013300013400013500018E
:10027B002C00013200013900012B00022D0000017E
:10028B003600012200012300012400013700013A4E
:10029B0000013800013100022F000004250000008E
:0102AB000052
:101CBB00EF1FAA0670011E4A600BE4FDEDC39447AB
:051CCB0050EE0D80F752
:011CD00022F1
:10002E008F828E83E5821582AE83700215834E60B9
:0B003E00097F147E00121CBB80EA2228
:101C8B0090FF1074C1F090FFA07420F075CC067516
:091C9B009E0275CEFF75CD982262
:081D4900E0FF121D51A3E0FFB1
:0A1D51008F993099FDC2997F00229E
:1019E10090FF1174C1F090FF10F090FF01F090FF93
:1019F10000F090FF17F090FF16F090FF15F090FFA8
:101A01001CF090FF13F090FF12F0C2A1C2A0C2819E
:0F1A1100C280C2A7C2A6C2A5D2B4D2A3D2A222BB
:101CE700C2A1C2A0C281C280C2A7C2A6C2A5D2B4E5
:051CF700D2A3D2A222DD
:10104C00D2B4D2A3D2A2EF24BA700302110524FEAB
:10105C0070030210F92448B40A00400302111590E1
:10106C001072F82828730210900210A10210A50229
:10107C0010B10210C10210CB0210D50210DB02100D
:10108C00E30210EDD2A1D2A0D281D280D2A7D2A6F7
:10109C00C2A5021123C2A18038D2A1D2A0C281D292
:1010AC0080D2A7800AD2A1D2A0D281D280C2A7C2FC
:1010BC00A6D2A58062C2A1D2A0D281C280802AD23F
:1010CC00A1C2A0D281D2808020D2A1C2A0800CD299
:1010DC00A1D2A0D2818038D2A1D2A0D281D28080DC
:1010EC0014D2A1D2A0D281D280C2A78016C2A1D222
:1010FC00A0D281C280D2A7800AD2A1C2A0C281C2D2
:10110C0080D2A7D2A6D2A5800EC2A1C2A0C281C293
:10111C0080C2A7C2A6C2A5BD0107C2B4D2A3D2A2E7
:10112C0022BD0207D2B4C2A3D2A222ED640370295D
:10113C00C2A1C2A0C281C280C2A7C2A6C2A5E53309
:10114C00B40102D2A0E534B40102D281E535B40178
:0A115C0002D280D2B4D2A3C2A222B4
:101B7300E536702BE522B401067D01AF298009E526
:101B830022B402097D02AF2A12104C800FE522B461
:101B9300030A7D037F5812104CE4F522052222121A
:021BA3001CE73D
:011BA500221D
:101BA600E4F514F51590FF1474C2F090FF9C7424AC
:101BB600F075DE2075DF1075DD9775230175DD97ED
:101BC6007F647E0012002E75DD0790FF147401F00D
:011BD60022EC
:1014DA00900092E0FEA3E04E700302157CE52460C2
:1014EA000302157F752401FCFDFFEE5408FE601B04
:1014FA00E52C700C752C01F52B753201F539800B32
:10150A00E4F52CF52BF532F539F536E52C64017046
:10151A0064121BA6900092E0FAEA54046016E532BF
:10152A00B4010475320222E532B402047532032290
:10153A0075320122EA5402600CE5397004753901EA
:10154A0022E4F53922900092E0FEEE54016026C3AF
:10155A00E52B648094895004052B8003E4F52BAFB6
:10156A002BEF3395E0FE7C007D3C1200B98E2D8F67
:05157A002E22E4F5241F
:01157F002249
:101CFC00E490FE80F0F589758CFF758A7B43A80211
:041D0C0043881022D6
:101CA40090FF1D7469F090FEB4E04404F090FEBA15
:071CB4007402F043D8012285
:03000B0002136479
:10136400C0E0C0F0C083C082C0D075D000C000C04F
:0D13740001C002C003C004C005C006C007D0
:101381000537E537D394964006753A01753700E481
:101391007B32FAF9F8AF28AE27AD26AC251201A8A9
:1013A100AC00AD01AE02AF03EC4D4E4F6003121B1A
:1013B10073782512024B7BC07A2779097800C31212
:1013C100023A5037752800752700752600752500EB
:1013D100E52E9400E52D94004021E52E152E700296
:1013E100152DAE2DAF2E7C007D3C1200CBEF04F508
:1013F1002BE52E452D7004F52CF52B0530E53070CD
:0314010002052FB2
:10140400D007D006D005D004D003D002D001D0003C
:0B141400D0D0D082D083D0F0D0E032E6
:03008B0002195304
:10195300C0E0C083C082C0D0539FFDE538602CE552
:1019630037D39469400375310074702531F582E4EF
:101973003400F583E537F07537000531E531D3944D
:10198300214003753100753A0080067538017537BB
:0A19930000D0D0D082D083D0E03223
:100AA800E5317003020D8DE53A7003020D8D90005B
:100AB80072E0C3940F50047F0080027F01EF25E0AD
:100AC800FF900071E0C3940F50047E0080027E0105
:100AD800EE4FFF900073E0C3940F50047E00800235
:100AE8007E01EE25E025E04FFF900074E0C3940FEF
:100AF80050047E0080027E01EE33333354F84FFFFA
:100B0800900075E0C3940F50047E0080027E01EED1
:100B1800C454F04FFF900076E0C3940F50047E0059
:100B280080027E01EEC43354E04FFF900077E0C3AB
:100B3800940F50047E0080027E01EEC4333354C00B
:100B48004FFF900078E0C3940F50047E0080027E2F
:100B580001EEC433333354804F90006CF090007A28
:100B6800E0C3940F50047F0080027F01EF25E0FF6F
:100B7800900079E0C3940F50047E0080027E01EE5D
:100B88004FFF90007BE0C3940F50047E0080027EEC
:100B980001EE25E025E04FFF90007CE0C3940F5064
:100BA800047E0080027E01EE33333354F84FFF9009
:100BB800007DE0C3940F50047E0080027E01EEC4E5
:100BC80054F04FFF90007EE0C3940F50047E0080E5
:100BD800027E01EEC43354E04FFF90007FE0C394DF
:100BE8000F50047E0080027E01EEC4333354C04FA0
:100BF800FF900080E0C3940F50047E0080027E01C5
:100C0800EEC433333354804F90006DF0900082E08F
:100C1800C3940F50047F0080027F01EF25E0FF900E
:100C28000081E0C3940F50047E0080027E01EE4FE5
:100C3800FF900083E0C3940F50047E0080027E0181
:100C4800EE25E025E04FFF900084E0C3940F5004A8
:100C58007E0080027E01EE33333354F84FFF90005C
:100C680085E0C3940F50047E0080027E01EEC454D8
:100C7800F04FFF900086E0C3940F50047E0080027E
:100C88007E01EEC43354E04FFF900087E0C3940F19
:100C980050047E0080027E01EEC4333354C04FFFFF
:100CA800900088E0C3940F50047E0080027E01EE1D
:100CB800C433333354804F90006EF090008AE0C301
:100CC800940F50047F0080027F01EF25E0FF900021
:100CD80089E0C3940F50047E0080027E01EE4FFF2E
:100CE80090008BE0C3940F50047E0080027E01EEDA
:100CF80025E025E04FFF90008CE0C3940F50047E60
:100D08000080027E01EE33333354F84FFF90008D9C
:100D1800E0C3940F50047E0080027E01EEC454F0BC
:100D28004FFF90008EE0C3940F50047E0080027E37
:100D380001EEC43354E04FFF90008FE0C3940F508E
:100D4800047E0080027E01EEC4333354C04FFF900E
:100D58000090E0C3940F50047E0080027E01EEC430
:100D680033333354804F90006FF0E4F53112141F81
:100D780090006C121D49A3121D49E490006CF0A369
:060D8800F0A3F0A3F0222D
:10141F0090006CE060030214D9A3E0F4600302149F
:10142F00D9C3E5309410E52F942750030214D9E463
:10143F00F52FF53090006EE0B4461BE52C700C755F
:10144F002C01F52B753201F539800BE4F52CF52BBA
:10145F00F532F539F536E52C6401705C121BA69058
:10146F00006EE0FFB44419E532B401057532028015
:10147F0047E532B40205753203803D75320180387D
:10148F00EFB4430EE5397005753901802BE4F5395A
:10149F008026EFB41622C3E52B648094895004058F
:1014AF002B8003E4F52BAF2BEF3395E0FE7C007D13
:1014BF003C1200B98E2D8F2E90006EE0B40D0BE50F
:0B14CF0036700475360122E4F5362269
:101D100090FF0774C1F090FF0BF090FF0AF090FF66
:031D200009F022A5
:10158000E52C6401600302160B753301E539600731
:10159000753401D2878005E4F534C287D3E52E94F3
:1015A00000E52D940040057535018003E4F535E52F
:1015B00032B40108D293C292C2918018E532B402CB
:1015C00008C293D292C291800BE532B40306C29353
:1015D000C292D291D3E52B648094814007852B2958
:1015E000752A4822E52BB4011BAE2DAF2E7C007D61
:1015F0000A1200CB8F29AE2DAF2E7C007D0A12007F
:10160000CB8D2A22853229752A4622E4F532F53916
:10161000F52BF52DF52EF529F52AF533F534F535AD
:0116200022A7
:101AD200121CD190FE927410F0121742D2AF121162
:101AE200661219E1121CFC121CA4121D1030010511
:101AF200121C2AC2011214DA120AA81215807F0AD5
:071B02007E0012002E80E6B8
:01000A0022D3
:101BD700E4FF75F002EFA4241BF582E5F03400F56D
:101BE70083E0FCA3E0FD75F002EFA42464F582E531
:0E1BF700F03400F583ECF0A3EDF00FBF04D442
:011C050022BC
:10182A000001020307090A0B0C0D0E0F0F0000003E
:10183A000014000078090A20050064020200500022
:10184A000A000A000A000A000A000A000A000A003E
:10185A000A000A000A000A000A000A000A000A002E
:10186A0078007800780078007800780078007800AE
:10187A00780078007800780078007800780078049A
:09188A000F0C000060C878FF0497
:1002AC0042005007D042005203E84200190064415A
:0702BC0000040A41004F029B
:0100120020CD
:1002C300C1014200920000011100C185C104020D69
:1002D3000000C102C100C10302120000020F0000AE
:0F02E300010C00010800010900010A00010B00D5
:101C4E00D310AF01C3C0D075FDF075FC0F8EFA8FA7
:101C5E00F975FDD275FC2D75FDE175FC1ED0D09287
:021C6E00AF22A3
:101C0600D310AF01C3C0D08DFB75FDF075FC0F8EF0
:101C1600FA8FF975FDB475FC4B75FDE175FC1ED0A8
:041C2600D092AF2287
:10199D00D310AF01C3C0D08E158F168D178B188A3B
:0319AD0019891A7B
:1019B000E4FCECC3951750240516E516AE1570022D
:1019C000051514FFAB18051AE51AAA1970020519B6
:0C19D00014F912008EFD121C060C80D6CB
:0519DC00D0D092AF2203
:1018F700153B153B153BA83BA60308A60208A60106
:10190700153BA83BA605153B153BA83BA60608A615
:1019170007A83B0808E616602CA83B0806E61886C9
:101927000670010614F5828E83E493FFE53B2403DA
:10193700F88603080806E618860270010614F9EF10
:0C1947001200A780CCE53B2406F53B22F3
:101B3F00EF7B017AFE79407D107012FF7E03121940
:101B4F009D7B017AFE79607D087F1080117F407E3A
:101B5F000312199D7B017AFE79607D087F507E0309
:041B6F0012199D2288
:101A2000153BA83BA607A83BE67B017AFE79407DE3
:101A3000107E037012FF1218F77B017AFE79607D29
:101A4000087E037F1080117F401218F77B017AFE19
:0E1A500079607D087E037F501218F7053B2257
:1016BB00E4FDFC90188BE493FFEDC39F50787E0004
:1016CB007401A805088005C333CE33CED8F9FFE5E6
:1016DB00125EFAE5135F4A603FE50F5EFEE5105FB1
:1016EB004E600E74052DF582E43400F583ECF0802A
:1016FB000D74052DF582E43400F58374FFF0742B23
:10170B002DF582E43400F583ECF02437F582E434D4
:10171B0000F583EDF00C801A742B2DF582E4340068
:10172B00F58374FFF074052DF582E43400F58374B2
:06173B00FFF00D0216BED6
:011741002285
:1017B700050C90188BE493FFE50CC39F4033D205CB
:1017C700D201D202E4F50C90188D93640170223097
:1017D700041FB20020000C90183F9390FE76F07F14
:1017E70000800B901840E49390FE76F07F01121A68
:1017F70020E51345127003D202227E007401A80C63
:10180700088005C333CE33CED8F9FFE5125EFEE577
:10181700135F4E609BE50C90182A93F5D5000000E6
:031827000000229C
:10127A00900094744EF0A37420F090183AE493709E
:10128A0003021363EF600302134390183C04937044
:10129A0002E4936003021335FF901889E493FEEF8A
:1012AA00C39E504875F002EFA4241BF582E5F03482
:1012BA0000F583E0FCA3E0FDD3900095E09D90004B
:1012CA0094E09C402475F002EFA4241BF582E5F01B
:1012DA003400F583E0FCA3E0FDD394C8EC9400400D
:1012EA0008900094ECF0A3EDF00F80AD900095E02B
:1012FA00249CF0900094E034FFF0E0FEA3E0FF7C31
:10130A00007D641201207C007D641200B990009473
:10131A00EEF0A3EFF0C39464EE64809480403A90B8
:10132A000094E0F50DA3E0F50E801990183CE493C3
:10133A00F50D740193F50E800BE50DC313F50DE55C
:10134A000E13F50E53D4BFC201C20543D440300573
:09135A00FDC20112006A3001FD20
:011363002267
:0A0D8E0090183AE493700302104B32
:100D9800E4F51EF51F75F002E50BA4241BF582E5AA
:100DA800F03400F583E0F51EA3E0F51FE50A6003C3
:100DB800020E9190183B93FFC3E50E9FFFE50D943B
:100DC80000FEC3E51F9FE51E9E505AE50C90182AA9
:100DD800932440F582E434FEF583E4F0E50C9018A2
:100DE8002A93FF54017012EFC3132460F582E43490
:100DF800FEF583E054F0FF8015E50C90182A93C3A4
:100E0800132460F582E434FEF583E0540FFFE50C0B
:100E180090182A93FEC3132460F582E434FEF58308
:100E2800EFF00217B77508017509FFE50C90182A4D
:100E380093FF54017014EFC3132460F582E434FE69
:100E4800F583E054F04401FF8017E50C90182A93CD
:100E5800C3132460F582E434FEF583E0540F441094
:100E6800FFE50C90182A93C3132460F582E434FE3E
:100E7800F583EFF0E50C90182A932440F582E434CA
:100E8800FEF58374FFF0050A22E50A640160030297
:100E98000F5590183B937E00250EFFEE350DFED3BF
:100EA800E51F9FE51E9E5003020F40E50C90182A8F
:100EB80093FF5401FD7C00700EEF132460F582E46B
:100EC80034FEF583E08013E50C90182A93C31324AD
:100ED80060F582E434FEF583E0C4540FFF8F11C33C
:100EE800EF940774809480504F0511ED4C7019E50C
:100EF8000C90182A93C3132460F582E434FEF5831A
:100F0800E054F04511FF801CE50C90182A93C31398
:100F18002460F582E434FEF583E0540FFFE511C444
:100F280054F04FFFE50C90182A93C3132460F58200
:100F3800E434FEF583EFF022050AE50C90182A93B5
:100F48002440F582E434FEF5837480F022E50A64D7
:100F5800026003021034C3E5099508FFE49400FE1B
:100F6800D3EF9400EE6480948050030210349018FC
:100F78003BE493F97E00250EFFEE350DFEC3E51F19
:100F88009FE51E9E403FE509FD2508FFE433A2E7E3
:100F980013EF13F508FF7E00C3ED9FFDE49EFCD31D
:100FA800ED9401EC648094804007EF2509FFEE8002
:100FB80050E50C90182A932440F582E434FEF5831A
:100FC800E509F08067E9FFC3E50E9FFFE50D940092
:100FD800FED3E51F9FE51E9E5052AD087C00ED250F
:100FE80009FFEC33A2E713EF13F509C39DFFE49C57
:100FF800FED3EF9401EE64809480401EED2509FF36
:10100800EC33A2E713EF13FFE50C90182A93244062
:10101800F582E434FEF583EFF022E50C90182A936C
:101028002440F582E434FEF583E508F0E4F50A127D
:1010380017B7050B901889E493FFE50BC39F40038E
:03104800E4F50BC1
:01104B002282
:101B090090FE40E4F0A3F0A3F0A3F0A3F0A3F0A3A8
:101B1900F0A3F0A3F0A3F0A3F0A3F0A3F0A3F0A324
:101B2900F0A3F090FE60F0A3F0A3F0A3F0A3F0A35C
:061B3900F0A3F0A3F0226E
:1011660090FE94E04402F0121B097F007E03121CDD
:101176004E90183EE49390FE77F090183FE49390DB
:10118600FE76F0901841E49390FE75F0901842E4D4
:101196009390FE74F0901836E493F512740193F56B
:1011A60013901838E493F50F740193F51043D48027
:1011B600D2BD1216BB90188BE493F50C1217B7D25A
:1011C60003C20112006AC20490188CE493FFD39400
:1011D600037480948050057514058005EF2403F58B
:1011E60014E514600B3001F9121BD712006680F16A
:1011F600E4FF12127A90188DE493604AE4FF121B02
:101206003F121B09901840E49390FE76F090188CDC
:10121600E493FFD39403748094805005751405807D
:1012260005EF2403F514E514600B3001F9121BD702
:1012360012006680F17F0112127A7F01121B3F7F36
:1012460000121A20D20490188CE493FFD3940374EE
:1012560080948050057514058005EF2403F514E588
:1012660014600B3001F9121BD712006680F1121AB6
:0312760099C20317
:011279002252
:1018930053D4DFC390189074019395D6E49395D7EE
:1018A300403A742B250C200016F582E43400F583AE
:1018B300E075F002A4241BF582E5F034008014F5F2
:1018C30082E43400F583E075F002A42423F582E575
:1018D300F03400F583E5D7F0A3E5D6F03005051223
:1018E30017B78003120D8E30030320010620020375
:0418F30043D4402278
:0A007E00D202E5D420E6FBC2012205
:040066001514C201AA
:09006A00300205C20243D4402219
:101D230030020FC202900037E0B5D503D20122433F
:031D3300D4402277
:101A9900E4FF901889E493FEEFC39E502B75F00282
:101AA900EFA42464F582E5F03400F583E0FCA3E0BB
:101AB900FD75F002EFA42454F582E5F03400F583B6
:081AC900ECF0A3EDF00F80CA60
:011AD10022F2
:101C2A00121BD712007EE4F51490188BE493FFE59B
:101C3A0014C39F5009AF14120380051480EB1200DD
:041C4A000A02006A20
:020380008F15D7
:10038200E4FBFAF516F517C206C207C208F51AF51C
:100392001BF51CF51DFE04A807088005C333CE33E8
:1003A200CED8F9F5198E18C3740F9515FFE4940091
:1003B200FEEF25E0FFEE33FE74692FF58274183EDE
:1003C200F583E493FC740193FD900004E0FF7E004A
:1003D2001200B97C007D0A1200CBAA06AB07C374D7
:1003E2000F9515FFE49400FEEF25E0FFEE33FE7457
:1003F200492FF58274183EF583E493F51674019340
:10040200F51774052515F582E43400F583E0FF74D1
:100412002B2515F582E43400F583E0FEB50706EFDF
:10042200F46002D2078E15E515F47003020AA79054
:10043200188DE493700302055875F002E515A424A3
:100442001BF582E5F03400F583E0FEA3E0FF90188F
:100452008EE493FC740193FDC3EF9DEE9C401F75E7
:10046200F002E515A42423F582E5F03400F583E0DB
:10047200FEA3E0C39DEE9C4005C20802055875F03C
:1004820002E515A42423F582E5F03400F583E0FEAD
:10049200A3E0FF901892E493FDEFA805088005CE33
:1004A200C313CE13D8F9F51D8E1C75F002E515A401
:1004B2002423F582E5F03400F583A3E025E0FF056F
:1004C20082D5820215831582E033FE75F002E515AE
:1004D200A4241BF582E5F03400F583E0FCA3E0FDE3
:1004E200C39FEC9E403975F002E515A42423F582E2
:1004F200E5F03400F583A3E025E0FF0582D5820212
:1005020015831582E033FEC3ED9FFFEC9EFEC3EF21
:10051200951DEE951C4004D208803BC208803775B9
:10052200F002E515A42423F582E5F03400F583A357
:10053200E025E0FF0582D5820215831582E033FEB5
:10054200C3EF9DFFEE9CFEC3EF951DEE951C40048C
:10055200D2088002C20875F002E515A42454F5827F
:10056200E5F03400F583E0FEA3E0FF75F002E51547
:10057200A42464F582E5F03400F583E0FCA3E0C333
:100582009FF51BEC9EF51A901847E4936064FD7C7E
:1005920000AF03AE021200B9D3E51B9FEE6480F8F0
:1005A200E51A6480984049743B2515F582E43400CD
:1005B200F583E004F0743B2515F582E43400F583FD
:1005C200E0FF901846E493FEEFC39E401FE519F446
:1005D200FFE518F4FE900092E05EF0A3E05FF07495
:1005E2003B2515F582E43400F583E4F0D20680025F
:1005F200C206C3E51B9BEA6480F8E51A6480985042
:1006020003020754300741900050E0FEA3E0FF4E82
:1006120070030206BF75F002E515A4243FF582E5DA
:10062200F03400F583E475F00112015675F002E52D
:1006320015A4243FF582E5F03400F583E0FCA3E045
:10064200C39FEC9E4077803C900052E0FEA3E0FF07
:100652004E606A75F002E515A4243FF582E5F03498
:1006620000F583E475F00112015675F002E515A458
:10067200243FF582E5F03400F583E0FCA3E0C39F5C
:10068200EC9E403975F002E515A42454F582E5F09C
:100692003400F583E51A851BF01201567400251506
:1006A200F582E43400F583E4F075F002E515A42444
:1006B2003FF582E5F03400F583E4F0A3F030060361
:1006C20002074390188AE4932BFFE43AFEC3E51B2A
:1006D2009FEE6480F8E51A648098405874002515EE
:1006E200F582E43400F583E004F074002515F58208
:1006F200E43400F583E0FF901845E493FEEFC39ED7
:10070200401C200819900092E04518F0A3E045191A
:10071200F074002515F582E43400F583E4F075F0F9
:1007220002E515A4245CF582E5F03400F583E4F0DB
:10073200A3F0800D74002515F582E43400F583E4FE
:10074200F075F002E515A42411F582E5F0340002FB
:1007520009ACD3E51B9517E5166480F8E51A6480A9
:10076200985003020855900019E0FEA3E0FF4E6086
:100772005D75F002E515A4245CF582E5F03400F520
:1007820083E475F00112015675F002E515A4245CAC
:10079200F582E5F03400F583E0FCA3E0D39FEC9E04
:1007A200402C75F002E515A42454F582E5F03400DE
:1007B200F583E51A851BF012015675F002E515A4C2
:1007C200245CF582E5F03400F583E4F0A3F09018A0
:1007D2008AE493FFC3EB9FFFEA9400FEC3E51B9FED
:1007E200EE6480F8E51A6480985059743B2515F53B
:1007F20082E43400F583E004F0743B2515F582E4CD
:100802003400F583E0FF901846E493FEEFC39E4068
:100812001FE519F4FFE518F4FE900092E05EF0A3E4
:10082200E05FF0743B2515F582E43400F583E4F0D3
:1008320075F002E515A4243FF582E5F03400F58356
:10084200E4F0A3F074002515F582E43400F583E4A6
:100852000209B1C3E49517FFE49516FEC3E51B9F99
:10086200EE6480F8E51A64809850030209C3D3E568
:100872001B9517E5166480F8E51A64809840030218
:1008820009C375F002E515A42411F582E5F03400E0
:10089200F583E51A851BF0120156901848E493F986
:1008A200FF75F002E515A42411F582E5F03400F598
:1008B20083E0FCA3E0FDD39F7480F8EC6480984051
:1008C2001D90004FE0FF75F002E515A42454F58257
:1008D200E5F03400F583E48FF01201568044E9FF1D
:1008E200C3E49FFFE49400FEC3ED9FEE6480F8EC46
:1008F200648098504175F002E515A42454F582E510
:10090200F03400F583C083C082E0FEA3E0FF9000D4
:100912004FE0FDC3EF9DFFEE9400D082D083F0A3A1
:10092200EFF075F002E515A42411F582E5F034002C
:10093200F583E4F0A3F0743B2515F582E43400F569
:1009420083E004F0743B2515F582E43400F583E07E
:10095200FF901846E493FEEFC39E401F743B25159B
:10096200F582E43400F583E4F0E519F4FFE518F4C8
:10097200FE900092E05EF0A3E05FF074002515F5B2
:1009820082E43400F583E4F075F002E515A4243F17
:10099200F582E5F03400F583E4F0A3F075F002E5AA
:1009A20015A4245CF582E5F03400F583E4F0A3F0AD
:1009B20075F002E515A42447F582E5F03400020A39
:1009C200A1901843E493FE740193FF4E605D75F0AD
:1009D20002E515A42447F582E5F03400F583E475B9
:1009E200F00112015675F002E515A42447F582E5DF
:1009F200F03400F583E0FCA3E0C39FEC9E402C752D
:100A0200F002E515A42447F582E5F03400F583E40D
:100A1200F0A3F075F002E515A42454F582E5F03454
:100A220000F583E51A851BF0120156743B2515F576
:100A320082E43400F583E004F0743B2515F582E48A
:100A42003400F583E0FF901846E493FEEFC39E4026
:100A52001F743B2515F582E43400F583E4F0E519B3
:100A6200F4FFE518F4FE900092E05EF0A3E05FF080
:100A720074002515F582E43400F583E4F075F00284
:100A8200E515A4243FF582E5F03400F583E4F0A3F4
:100A9200F075F002E515A4245CF582E5F03400F56A
:050AA20083E4F0A3F065
:010AA700222C
:101C700090FF1074C1F0D2A090FFA07420F0759E68
:0B1C80000274FFF5CEF5CD75CC0622F6
:0802F3008F993099FDC2992298
:101D3600AD07AC068C993099FDC2998D993099FD05
:031D4600C299221D
:10174200E4F58090FF0004F090FF01F090FF02F0BA
:1017520090FF03F090FF04F090FF05F090FF06F079
:1017620090FF07F090FF08F090FF09F090FF0AF059
:1017720090FF0BF090FF0CF090FF0DF090FF0EF039
:1017820090FF0FF0E4F5A090FF1004F090FF11F02D
:1017920090FF12F090FF13F090FF14F090FF15F0FD
:1017A20090FF16F090FF17F0E4F5B090FF1C04F0E4
:0517B20090FF1DF02274
:03000300020006F2
:0200060080FE7A
:03001300020008E0
:0200080080FE78
:03001B0002000ED2
:02000E0080FE72
:03002300020010C8
:0200100080FE70
:03002B00020016BA
:0200160080FE6A
:03004B0002001898
:0200180080FE68
:0300530002001E8A
:02001E0080FE62
:03005B0002002080
:0200200080FE60
:0300630002002672
:0200260080FE5A
:03007300021A5E10
:101A5E00C0E0C0F0C083C082C0D075D000C000C04E
:101A6E0001C002C003C004C005C006C0071218930F
:101A7E00D007D006D005D004D003D002D001D000BC
:0B1A8E00D0D0D082D083D0F0D0E03266
:03007B0002002858
:0200280080FE58
:101CD100758E1190FE917401F090FEAA74FFF09040
:061CE100FEA474C2F02213
:10163B00021AD2E493A3F8E493A34003F68001F2D9
:10164B0008DFF48029E493A3F85407240CC8C333B0
:10165B00C4540F4420C8834004F456800146F6DF7F
:10166B00E4800B010204081020408090026BE47EA2
:10167B00019360BCA3FF543F30E509541FFEE49374
:10168B00A360010ECF54C025E060A840B8E493A33B
:10169B00FAE493A3F8E493A3C8C582C8CAC583CA66
:1016AB00F0A3C8C582C8CAC583CADFE9DEE780BE1E
:0102F200000B
:10008E00BB010689828A83E0225002E722BBFE0270
:09009E00E32289828A83E49322A3
:1000A700BB010689828A83F0225002F722BBFE0138
:0200B700F32232
:1000B900EF8DF0A4A8F0CF8CF0A428CE8DF0A42E5B
:0200C900FE2215
:1000CB00BC000BBE0029EF8DF084FFADF022E4CC19
:1000DB00F875F008EF2FFFEE33FEEC33FCEE9DECE2
:1000EB00984005FCEE9DFE0FD5F0E9E4CEFD22ED28
:1000FB00F8F5F0EE8420D21CFEADF075F008EF2F72
:10010B00FFED33FD4007985006D5F0F222C398FD62
:05011B000FD5F0EA22FF
:10012000C2D5EC30E709B2D5E4C39DFDE49CFCEEFA
:1001300030E715B2D5E4C39FFFE49EFE1200CBC3A7
:10014000E49DFDE49CFC80031200CB30D507C3E4A2
:060150009FFFE49EFE2269
:10015600C5F0F8A3E028F0C5F0F8E5821582700234
:060166001583E038F022D1
:10016C0075F008758200EF2FFFEE33FECD33CDCC4A
:10017C0033CCC58233C5829BED9AEC99E5829840CD
:10018C000CF582EE9BFEED9AFDEC99FC0FD5F0D6AA
:10019C00E4CEFBE4CDFAE4CCF9A88222B800C1B9D4
:1001AC000059BA002DEC8BF084CFCECDFCE5F0CB12
:1001BC00F97818EF2FFFEE33FEED33FDEC33FCEB4B
:1001CC0033FB10D703994004EB99FB0FD8E5E4F906
:1001DC00FA227818EF2FFFEE33FEED33FDEC33FCF3
:1001EC00C933C910D7059BE99A4007EC9BFCE99AE7
:1001FC00F90FD8E0E4C9FAE4CCFB2275F010EF2F2C
:10020C00FFEE33FEED33FDCC33CCC833C810D7072B
:10021C009BEC9AE899400AED9BFDEC9AFCE899F866
:0E022C000FD5F0DAE4CDFBE4CCFAE4C8F922F9
:10023A00EB9FF5F0EA9E42F0E99D42F0E89C45F01A
:01024A002291
:10024B007401FF3395E0FEFDFC080808E6CF2FF69E
:10025B0018E6CE3EF618E6CD3DF618E6CC3CF62277
:00000001FF
