:03000000020E44A9
:100E440078FFE4F6D8FD9000007F007E04E4F0A370
:0A0E5400DFFCDEFA758122020E9920
:1012DD0012136D90FE927410F0120F65D2AF1200C2
:1012ED008E12002E300105121327C20190009AE0D4
:0612FD0070F2A3E080EE98
:01000A0022D3
:1012AE00E4FF75F002EFA42425F582E5F03400F595
:1012BE0083E0FCA3E0FD75F002EFA4248EF582E539
:0E12CE00F03400F583ECF0A3EDF00FBF06D472
:0112DC0022EF
:100FDA00000102030405060708090A0B0C0D0E0F8F
:100FEA00FC0000000014000078090A2005006402D1
:100FFA00020050000A000A000A000A000A000A0059
:10100A000A000A000A000A000A000A000A000A0086
:10101A000A000A00780078007800780078007800E2
:10102A0078007800780078007800780078007800F6
:0D103A00780078060F10000060C878FF04F1
:1011070042007207D042007403E8420023006441A2
:0711170000060A410071020D
:0100120020CD
:10111E00C10142009A0000011100C185C104020DF7
:10112E000000C102C100C10302120000020F000044
:0F113E00010C00010800010900010A00010B006B
:10134B00D310AF01C3C0D075FDF075FC0F8EFA8FB3
:10135B00F975FDD275FC2D75FDE175FC1ED0D09293
:02136B00AF22AF
:10130300D310AF01C3C0D08DFB75FDF075FC0F8EFC
:10131300FA8FF975FDB475FC4B75FDE175FC1ED0B4
:04132300D092AF2293
:10114E00D310AF01C3C0D08E158F168D178B188A92
:03115E0019891AD2
:10116100E4FCECC3951750240516E516AE15700284
:10117100051514FFAB18051AE51AAA19700205190D
:0C11810014F9120D66FD1213030C80D649
:05118D00D0D092AF225A
:1010AB00152215221522A822A60308A60208A601BE
:1010BB001522A822A60515221522A822A60608A6E7
:1010CB0007A8220808E616602CA8220806E6188650
:1010DB000670010614F5828E83E493FFE522240348
:1010EB00F88603080806E618860270010614F9EF65
:0C10FB00120D7F80CCE5222406F5222295
:10127A00EF7B017AFE79407D107012FF7E03121116
:10128A004E7B017AFE79607D087F1080117F407E57
:10129A000312114E7B017AFE79607D087F507E032E
:0412AA0012114E22AD
:101192001522A822A607A822E67B017AFE79407DC5
:1011A200107E037012FF1210AB7B017AFE79607D14
:1011B200087E037F1080117F401210AB7B017AFE04
:0E11C20079607D087E037F501210AB0522225B
:100EDE00E4FDFC90103FE493FFEDC39F50787E003D
:100EEE007401A805088005C333CE33CED8F9FFE5CB
:100EFE00125EFAE5135F4A603FE50F5EFEE5105F96
:100F0E004E600E74072DF582E43400F583ECF0800C
:100F1E000D74072DF582E43400F58374FFF0743DF3
:100F2E002DF582E43400F583ECF0244DF582E434A3
:100F3E0000F583EDF00C801A743D2DF582E434003B
:100F4E00F58374FFF074072DF582E43400F5837495
:060F5E00FFF00D020EE1A0
:010F6400226A
:10028C00050C90103FE493FFE50CC39F4033D2055F
:10029C00D201D202E4F50C9010419364017022302B
:1002AC00041FB20020000C900FF39390FE76F07FA9
:1002BC0000800B900FF4E49390FE76F07F01121106
:1002CC0092E51345127003D202227E007401A80C31
:1002DC00088005C333CE33CED8F9FFE5125EFEE5B8
:1002EC00135F4E609BE50C900FDA93F5D500000080
:0302FC00000022DD
:1001A20090009C744EF0A37420F0900FEEE49370D4
:1001B2000302028BEF600302026B900FF004937054
:1001C20002E493600302025DFF90103DE493FEEFB0
:1001D200C39E504875F002EFA42425F582E5F03461
:1001E20000F583E0FCA3E0FDD390009DE09D90002C
:1001F2009CE09C402475F002EFA42425F582E5F0F2
:100202003400F583E0FCA3E0FDD394C8EC940040F5
:100212000890009CECF0A3EDF00F80AD90009DE003
:10022200249CF090009CE034FFF0E0FEA3E0FF7C11
:10023200007D64120DF87C007D64120D9190009C8B
:10024200EEF0A3EFF0C39464EE64809480403A90A1
:10025200009CE0F50DA3E0F50E8019900FF0E493F9
:10026200F50D740193F50E800BE50DC313F50DE545
:100272000E13F50E53D4BFC201C20543D44030055C
:09028200FDC20112006A3001FD09
:01028B002250
:0A0AA800900FEEE4937003020D6559
:100AB200E4F51EF51F75F002E50BA42425F582E589
:100AC200F03400F583E0F51EA3E0F51FE50A6003AC
:100AD200020BAB900FEF93FFC3E50E9FFFE50D9462
:100AE20000FEC3E51F9FE51E9E505AE50C900FDAEB
:100AF200932440F582E434FEF583E4F0E50C900F94
:100B0200DA93FF54017012EFC3132460F582E434C8
:100B1200FEF583E054F0FF8015E50C900FDA93C3E5
:100B2200132460F582E434FEF583E0540FFFE50CF4
:100B3200900FDA93FEC3132460F582E434FEF5834A
:100B4200EFF002028C7508017509FFE50C900FDACF
:100B520093FF54017014EFC3132460F582E434FE52
:100B6200F583E054F04401FF8017E50C900FDA930F
:100B7200C3132460F582E434FEF583E0540F44107D
:100B8200FFE50C900FDA93C3132460F582E434FE80
:100B9200F583EFF0E50C900FDA932440F582E4340C
:100BA200FEF58374FFF0050A22E50A640160030280
:100BB2000C6F900FEF937E00250EFFEE350DFED3E6
:100BC200E51F9FE51E9E5003020C5AE50C900FDABA
:100BD20093FF5401FD7C00700EEF132460F582E454
:100BE20034FEF583E08013E50C900FDA93C31324EF
:100BF20060F582E434FEF583E0C4540FFF8F11C325
:100C0200EF940774809480504F0511ED4C7019E5F4
:100C12000C900FDA93C3132460F582E434FEF5835B
:100C2200E054F04511FF801CE50C900FDA93C313DA
:100C32002460F582E434FEF583E0540FFFE511C42D
:100C420054F04FFFE50C900FDA93C3132460F58242
:100C5200E434FEF583EFF022050AE50C900FDA93F7
:100C62002440F582E434FEF5837480F022E50A64C0
:100C7200026003020D4EC3E5099508FFE49400FEED
:100C8200D3EF9400EE648094805003020D4E900FD7
:100C9200EFE493F97E00250EFFEE350DFEC3E51F4E
:100CA2009FE51E9E403FE509FD2508FFE433A2E7CC
:100CB20013EF13F508FF7E00C3ED9FFDE49EFCD306
:100CC200ED9401EC648094804007EF2509FFEE80EB
:100CD20050E50C900FDA932440F582E434FEF5835C
:100CE200E509F08067E9FFC3E50E9FFFE50D94007B
:100CF200FED3E51F9FE51E9E5052AD087C00ED25F8
:100D020009FFEC33A2E713EF13F509C39DFFE49C3F
:100D1200FED3EF9401EE64809480401EED2509FF1E
:100D2200EC33A2E713EF13FFE50C900FDA932440A4
:100D3200F582E434FEF583EFF022E50C900FDA93AE
:100D42002440F582E434FEF583E508F0E4F50A1266
:100D5200028C050B90103DE493FFE50BC39F40030B
:030D6200E4F50BAA
:010D6500226B
:1012440090FE40E4F0A3F0A3F0A3F0A3F0A3F0A376
:10125400F0A3F0A3F0A3F0A3F0A3F0A3F0A3F0A3F2
:10126400F0A3F090FE60F0A3F0A3F0A3F0A3F0A32A
:06127400F0A3F0A3F0223C
:10008E0090FE94E04402F01212447F007E0312139D
:10009E004B900FF2E49390FE77F0900FF3E4939071
:1000AE00FE76F0900FF5E49390FE75F0900FF6E467
:1000BE009390FE74F0900FEAE493F512740193F5A9
:1000CE0013900FECE493F50F740193F51043D48065
:1000DE00D2BD120EDE90103FE493F50C12028CD2BC
:1000EE0003C20112006AC204901040E493FFD3943D
:1000FE00037480948050057514058005EF2403F574
:10010E0014E514600B3001F91212AE12006680F184
:10011E00E4FF1201A2901041E493604AE4FF121230
:10012E007A121244900FF4E49390FE76F090104001
:10013E00E493FFD394037480948050057514058066
:10014E0005EF2403F514E514600B3001F91212AE1D
:10015E0012006680F17F011201A27F0112127A7FD6
:10016E0000121192D204901040E493FFD3940374C2
:10017E0080948050057514058005EF2403F514E571
:10018E0014600B3001F91212AE12006680F11212D9
:03019E000BC2038E
:0101A100223B
:1010470053D4DFC390104474019395D6E49395D796
:10105700403A743D250C200016F582E43400F583F0
:10106700E075F002A42425F582E5F034008014F53C
:1010770082E43400F583E075F002A42431F582E5BB
:10108700F03400F583E5D7F0A3E5D6F03005051277
:10109700028C8003120AA8300303200106200203F2
:0410A70043D44022CC
:0A007E00D202E5D420E6FBC2012205
:040066001514C201AA
:09006A00300205C20243D4402219
:1013830030020FC20290004DE0B5D503D2012243D3
:03139300D4402221
:10120B00E4FF90103DE493FEEFC39E502B75F0026C
:10121B00EFA4248EF582E5F03400F583E0FCA3E027
:10122B00FD75F002EFA42476F582E5F03400F5832A
:08123B00ECF0A3EDF00F80CAF6
:011243002288
:101327001212AE12007EE4F51490103FE493FFE52D
:1013370014C39F5009AF14120380051480EB1200E9
:041347000A02006A2C
:020380008F15D7
:10038200E4FBFAF516F517C206C207C208F51AF51C
:100392001BF51CF51DFE04A807088005C333CE33E8
:1003A200CED8F9F5198E18C3740F9515FFE4940091
:1003B200FEEF25E0FFEE33FE741D2FF58274103E32
:1003C200F583E493FC740193FD900006E0FF7E0048
:1003D200120D917C007D0A120DA3AA06AB07C3740D
:1003E2000F9515FFE49400FEEF25E0FFEE33FE7457
:1003F200FD2FF582740F3EF583E493F51674019395
:10040200F51774072515F582E43400F583E0FF74CF
:100412003D2515F582E43400F583E0FEB50706EFCD
:10042200F46002D2078E15E515F47003020AA79054
:100432001041E493700302055875F002E515A424F7
:1004420025F582E5F03400F583E0FEA3E0FF90108D
:1004520042E493FC740193FDC3EF9DEE9C401F7533
:10046200F002E515A42431F582E5F03400F583E0CD
:10047200FEA3E0C39DEE9C4005C20802055875F03C
:1004820002E515A42431F582E5F03400F583E0FE9F
:10049200A3E0FF901046E493FDEFA805088005CE87
:1004A200C313CE13D8F9F51D8E1C75F002E515A401
:1004B2002431F582E5F03400F583A3E025E0FF0561
:1004C20082D5820215831582E033FE75F002E515AE
:1004D200A42425F582E5F03400F583E0FCA3E0FDD9
:1004E200C39FEC9E403975F002E515A42431F582D4
:1004F200E5F03400F583A3E025E0FF0582D5820212
:1005020015831582E033FEC3ED9FFFEC9EFEC3EF21
:10051200951DEE951C4004D208803BC208803775B9
:10052200F002E515A42431F582E5F03400F583A349
:10053200E025E0FF0582D5820215831582E033FEB5
:10054200C3EF9DFFEE9CFEC3EF951DEE951C40048C
:10055200D2088002C20875F002E515A42476F5825D
:10056200E5F03400F583E0FEA3E0FF75F002E51547
:10057200A4248EF582E5F03400F583E0FCA3E0C309
:100582009FF51BEC9EF51A900FFBE4936064FD7CD3
:1005920000AF03AE02120D91D3E51B9FEE6480F80B
:1005A200E51A648098404974532515F582E43400B5
:1005B200F583E004F074532515F582E43400F583E5
:1005C200E0FF900FFAE493FEEFC39E401FE519F49B
:1005D200FFE518F4FE90009AE05EF0A3E05FF0748D
:1005E200532515F582E43400F583E4F0D206800247
:1005F200C206C3E51B9BEA6480F8E51A6480985042
:1006020003020754300741900072E0FEA3E0FF4E60
:1006120070030206BF75F002E515A42459F582E5C0
:10062200F03400F583E475F001120E2E75F002E548
:1006320015A42459F582E5F03400F583E0FCA3E02B
:10064200C39FEC9E4077803C900074E0FEA3E0FFE5
:100652004E606A75F002E515A42459F582E5F0347E
:1006620000F583E475F001120E2E75F002E515A473
:100672002459F582E5F03400F583E0FCA3E0C39F42
:10068200EC9E403975F002E515A42476F582E5F07A
:100692003400F583E51A851BF0120E2E7400251521
:1006A200F582E43400F583E4F075F002E515A42444
:1006B20059F582E5F03400F583E4F0A3F030060347
:1006C20002074390103EE4932BFFE43AFEC3E51B7E
:1006D2009FEE6480F8E51A648098405874002515EE
:1006E200F582E43400F583E004F074002515F58208
:1006F200E43400F583E0FF900FF9E493FEEFC39E2C
:10070200401C20081990009AE04518F0A3E0451912
:10071200F074002515F582E43400F583E4F075F0F9
:1007220002E515A42482F582E5F03400F583E4F0B5
:10073200A3F0800D74002515F582E43400F583E4FE
:10074200F075F002E515A42417F582E5F0340002F5
:1007520009ACD3E51B9517E5166480F8E51A6480A9
:10076200985003020855900023E0FEA3E0FF4E607C
:100772005D75F002E515A42482F582E5F03400F5FA
:1007820083E475F001120E2E75F002E515A42482A1
:10079200F582E5F03400F583E0FCA3E0D39FEC9E04
:1007A200402C75F002E515A42476F582E5F03400BC
:1007B200F583E51A851BF0120E2E75F002E515A4DD
:1007C2002482F582E5F03400F583E4F0A3F0901082
:1007D2003EE493FFC3EB9FFFEA9400FEC3E51B9F39
:1007E200EE6480F8E51A648098505974532515F523
:1007F20082E43400F583E004F074532515F582E4B5
:100802003400F583E0FF900FFAE493FEEFC39E40BD
:100812001FE519F4FFE518F4FE90009AE05EF0A3DC
:10082200E05FF074532515F582E43400F583E4F0BB
:1008320075F002E515A42459F582E5F03400F5833C
:10084200E4F0A3F074002515F582E43400F583E4A6
:100852000209B1C3E49517FFE49516FEC3E51B9F99
:10086200EE6480F8E51A64809850030209C3D3E568
:100872001B9517E5166480F8E51A64809840030218
:1008820009C375F002E515A42417F582E5F03400DA
:10089200F583E51A851BF0120E2E900FFCE493F9F6
:1008A200FF75F002E515A42417F582E5F03400F592
:1008B20083E0FCA3E0FDD39F7480F8EC6480984051
:1008C2001D900071E0FF75F002E515A42476F58213
:1008D200E5F03400F583E48FF0120E2E8044E9FF38
:1008E200C3E49FFFE49400FEC3ED9FEE6480F8EC46
:1008F200648098504175F002E515A42476F582E5EE
:10090200F03400F583C083C082E0FEA3E0FF9000D4
:1009120071E0FDC3EF9DFFEE9400D082D083F0A37F
:10092200EFF075F002E515A42417F582E5F0340026
:10093200F583E4F0A3F074532515F582E43400F551
:1009420083E004F074532515F582E43400F583E066
:10095200FF900FFAE493FEEFC39E401F74532515D8
:10096200F582E43400F583E4F0E519F4FFE518F4C8
:10097200FE90009AE05EF0A3E05FF074002515F5AA
:1009820082E43400F583E4F075F002E515A42459FD
:10099200F582E5F03400F583E4F0A3F075F002E5AA
:1009A20015A42482F582E5F03400F583E4F0A3F087
:1009B20075F002E515A42465F582E5F03400020A1B
:1009C200A1900FF7E493FE740193FF4E605D75F002
:1009D20002E515A42465F582E5F03400F583E4759B
:1009E200F001120E2E75F002E515A42465F582E5DC
:1009F200F03400F583E0FCA3E0C39FEC9E402C752D
:100A0200F002E515A42465F582E5F03400F583E4EF
:100A1200F0A3F075F002E515A42476F582E5F03432
:100A220000F583E51A851BF0120E2E74532515F579
:100A320082E43400F583E004F074532515F582E472
:100A42003400F583E0FF900FFAE493FEEFC39E407B
:100A52001F74532515F582E43400F583E4F0E5199B
:100A6200F4FFE518F4FE90009AE05EF0A3E05FF078
:100A720074002515F582E43400F583E4F075F00284
:100A8200E515A42459F582E5F03400F583E4F0A3DA
:100A9200F075F002E515A42482F582E5F03400F544
:050AA20083E4F0A3F065
:010AA700222C
:10002E0090FF1074C1F0D2A090FFA07420F0759EC6
:0B003E000274FFF5CEF5CD75CC062254
:0813A9008F993099FDC29922D1
:10139600AD07AC068C993099FDC2998D993099FDAF
:0313A600C29922C7
:100F6500E4F58090FF0004F090FF01F090FF02F09F
:100F750090FF03F090FF04F090FF05F090FF06F05E
:100F850090FF07F090FF08F090FF09F090FF0AF03E
:100F950090FF0BF090FF0CF090FF0DF090FF0EF01E
:100FA50090FF0FF0E4F5A090FF1004F090FF11F012
:100FB50090FF12F090FF13F090FF14F090FF15F0E2
:100FC50090FF16F090FF17F0E4F5B090FF1C04F0C9
:050FD50090FF1DF02259
:03000300020006F2
:0200060080FE7A
:03000B00020008E8
:0200080080FE78
:0300130002000EDA
:02000E0080FE72
:03001B00020010D0
:0200100080FE70
:03002300020016C2
:0200160080FE6A
:03002B00020018B8
:0200180080FE68
:03004B0002001E92
:02001E0080FE62
:0300530002002088
:0200200080FE60
:03005B000200267A
:0200260080FE5A
:0300630002002870
:0200280080FE58
:030073000211D0A7
:1011D000C0E0C0F0C083C082C0D075D000C000C0E5
:1011E00001C002C003C004C005C006C007121047FA
:1011F000D007D006D005D004D003D002D001D00053
:0B120000D0D0D082D083D0F0D0E032FC
:03007B0002004937
:0200490080FE37
:03008B0002004E22
:02004E0080FE32
:10136D00758E1190FE917401F090FEAA74FFF090AD
:06137D00FEA474C2F02280
:100E5E000212DDE493A3F8E493A34003F68001F2BB
:100E6E0008DFF48029E493A3F85407240CC8C33395
:100E7E00C4540F4420C8834004F456800146F6DF64
:100E8E00E4800B0102040810204080901107E47EDC
:100E9E00019360BCA3FF543F30E509541FFEE49359
:100EAE00A360010ECF54C025E060A840B8E493A320
:100EBE00FAE493A3F8E493A3C8C582C8CAC583CA4B
:100ECE00F0A3C8C582C8CAC583CADFE9DEE780BE03
:01114D0000A1
:100D6600BB010689828A83E0225002E722BBFE028B
:090D7600E32289828A83E49322BE
:100D7F00BB010689828A83F0225002F722BBFE0153
:020D8F00F3224D
:100D9100EF8DF0A4A8F0CF8CF0A428CE8DF0A42E76
:020DA100FE2230
:100DA300BC000BBE0029EF8DF084FFADF022E4CC34
:100DB300F875F008EF2FFFEE33FEEC33FCEE9DECFD
:100DC300984005FCEE9DFE0FD5F0E9E4CEFD22ED43
:100DD300F8F5F0EE8420D21CFEADF075F008EF2F8D
:100DE300FFED33FD4007985006D5F0F222C398FD7E
:050DF3000FD5F0EA221B
:100DF800C2D5EC30E709B2D5E4C39DFDE49CFCEE16
:100E080030E715B2D5E4C39FFFE49EFE120DA3C3DD
:100E1800E49DFDE49CFC8003120DA330D507C3E4D8
:060E28009FFFE49EFE2284
:100E2E00C5F0F8A3E028F0C5F0F8E582158270024F
:060E3E001583E038F022EC
:00000001FF
