:030000000215FEE8
:1015FE0078FFE4F6D8FD9000007F007E04E4F0A3AF
:0A160E00DFFCDEFA75813A02165384
:10169800010F00011000011900011A00011B0001CF
:1016A8001200011800011E000111000213000001C0
:1016B8000800010900010A00011C00011F00011DAA
:0E16C8000001170002150000040B00000000D6
:101C8E00EF1FAA0670011E4A600BE4FDEDC39447D8
:051C9E0050EE0D80F77F
:011CA300221E
:10002E008F828E83E5821582AE83700215834E60B9
:0B003E00097F147E00121C8E80EA2255
:101C5E0090FF1074C1F090FFA07420F075CC067543
:091C6E009E0275CEFF75CD98228F
:0A007E008F993099FDC2997F00228E
:1019BC0090FF1174C1F090FF10F090FF01F090FFB8
:1019CC0000F090FF17F090FF16F090FF15F090FFCD
:1019DC001CF090FF13F090FF12F0C2A1C2A0C281C4
:0F19EC00C280C2A7C2A6C2A5D2B4D2A3D2A222E1
:101CBA00C2A1C2A0C281C280C2A7C2A6C2A5D2B412
:051CCA00D2A3D2A2220A
:10104200D2B4D2A3D2A2EF24BA70030210FD24FEBE
:1010520070030210F12448B40A00400302110D90FB
:101062001068F82828730210860210880210910274
:10107200109D0210AD0210B70210C10210CB021077
:10108200860210E5804DC2A1D2A0D281021113D2F4
:10109200A1D2A0C281D280D2A7800AD2A1D2A0D2EC
:1010A20081D280C2A7C2A6D2A5806EC2A1D2A0D28E
:1010B20081C2808036D2A1C2A0D281D280802CD2BD
:1010C200A1C2A0D281D280802ED2A1D2A0D281D2BE
:1010D200808040D2A1D2A0D281D280D2A7D2A6C291
:1010E200A58036D2A1D2A0D281D280C2A78016C258
:1010F200A1D2A0D281C280D2A7800AD2A1C2A0C2AC
:1011020081C280D2A7D2A6D2A5800EC2A1C2A0C29D
:1011120081C280C2A7C2A6C2A5BD0107C2B4D2A322
:10112200D2A222BD0207D2B4C2A3D2A222ED64038C
:101132007029C2A1C2A0C281C280C2A7C2A6C2A592
:10114200E519B40102D2A0E51AB40102D281E51B6D
:0C115200B40102D280D2B4D2A3C2A22207
:101BAE00E508B401067D01AF0F8009E508B402090E
:101BBE007D02AF10121042800FE508B4030A7D03B8
:0A1BCE007F58121042E4F5080508E4
:011BD80022EA
:101B4E00E4F52EF52F90FF1474C2F090FF9C7424D0
:101B5E00F075DE2075DF1075DD9775090175DD975F
:101B6E007F647E0012002E75DD0790FF147401F065
:011B7E002244
:10141700900092E0FEA3E04E70030214B7E50A6065
:10142700030214BA750A01FCFDFFEE5408FE6019A9
:10143700E512700C751201F511751801F51E80097A
:10144700E4F512F511F518F51EE512640170641242
:101457001B4E900092E0FAEA54046016E518B401B6
:101467000475180222E518B40204751803227518CA
:101477000122EA5402600CE51E7004751E0122E485
:10148700F51E22900092E0FEEE54016026C3E5119E
:1014970064809486500405118003E4F511AF11EFC1
:1014A7003395E0FE7C007D3C1200B98E138F142229
:0314B700E4F50A4F
:0114BA00220F
:101CCF00E490FE80F0F589758CFF758A7B43A8023E
:041CDF004388102204
:101C770090FF1D7469F090FEB4E04404F090FEBA42
:071C87007402F043D80122B2
:03000B0002135C81
:10135C00C0E0C0F0C083C082C0D075D000C000C057
:0D136C0001C002C003C004C005C006C007D8
:10137900051CE51CD394964006751F01751C00E4F5
:101389007B32FAF9F8AF0EAE0DAD0CAC0B1201A819
:10139900AC00AD01AE02AF03EC4D4E4F6003121B22
:1013A900AE780B12024B7BC07A2779097800C312F9
:1013B900023A5037750E00750D00750C00750B005B
:1013C900E5149400E51394004021E5141514700206
:1013D9001513AE13AF147C007D3C1200CBEF04F55E
:1013E90011E51445137004F512F5110516E516708B
:0313F900020515D5
:1013FC00D007D006D005D004D003D002D001D00045
:0B140C00D0D0D082D083D0F0D0E032EE
:03008B0002192E29
:10192E00C0E0C083C082C0D0539FFDE51D602CE592
:10193E001CD39469400375170074702517F582E463
:10194E003400F583E51CF0751C000517E517D394DC
:10195E00214003751700751F008006751D01751C4B
:0A196E0000D0D0D082D083D0E03248
:100AA800E5177003020D83E51F7003020D839000A4
:100AB80072E0C3940F50047F0080027F01EF25E0AD
:100AC800FF900071E0C3940F50047E0080027E0105
:100AD800EE4FFF900073E0C3940F50047E00800235
:100AE8007E01EE25E025E04FFF900074E0C3940FEF
:100AF80050047E0080027E01EE33333354F84FFFFA
:100B0800900075E0C3940F50047E0080027E01EED1
:100B1800C454F04FFF900076E0C3940F50047E0059
:100B280080027E01EEC43354E04FFF900077E0C3AB
:100B3800940F50047E0080027E01EEC4333354C00B
:100B48004FFF900078E0C3940F50047E0080027E2F
:100B580001EEC433333354804F90006CF090007A28
:100B6800E0C3940F50047F0080027F01EF25E0FF6F
:100B7800900079E0C3940F50047E0080027E01EE5D
:100B88004FFF90007BE0C3940F50047E0080027EEC
:100B980001EE25E025E04FFF90007CE0C3940F5064
:100BA800047E0080027E01EE33333354F84FFF9009
:100BB800007DE0C3940F50047E0080027E01EEC4E5
:100BC80054F04FFF90007EE0C3940F50047E0080E5
:100BD800027E01EEC43354E04FFF90007FE0C394DF
:100BE8000F50047E0080027E01EEC4333354C04FA0
:100BF800FF900080E0C3940F50047E0080027E01C5
:100C0800EEC433333354804F90006DF0900082E08F
:100C1800C3940F50047F0080027F01EF25E0FF900E
:100C28000081E0C3940F50047E0080027E01EE4FE5
:100C3800FF900083E0C3940F50047E0080027E0181
:100C4800EE25E025E04FFF900084E0C3940F5004A8
:100C58007E0080027E01EE33333354F84FFF90005C
:100C680085E0C3940F50047E0080027E01EEC454D8
:100C7800F04FFF900086E0C3940F50047E0080027E
:100C88007E01EEC43354E04FFF900087E0C3940F19
:100C980050047E0080027E01EEC4333354C04FFFFF
:100CA800900088E0C3940F50047E0080027E01EE1D
:100CB800C433333354804F90006EF090008AE0C301
:100CC800940F50047F0080027F01EF25E0FF900021
:100CD80089E0C3940F50047E0080027E01EE4FFF2E
:100CE80090008BE0C3940F50047E0080027E01EEDA
:100CF80025E025E04FFF90008CE0C3940F50047E60
:100D08000080027E01EE33333354F84FFF90008D9C
:100D1800E0C3940F50047E0080027E01EEC454F0BC
:100D28004FFF90008EE0C3940F50047E0080027E37
:100D380001EEC43354E04FFF90008FE0C3940F508E
:100D4800047E0080027E01EEC4333354C04FFF900E
:100D58000090E0C3940F50047E0080027E01EEC430
:100D680033333354804F90006FF0E4F5171214BBFF
:0C0D7800E490006CF0A3F0A3F0A3F022C4
:1014BB0090006CE0600302155CA3E0F4600302157E
:1014CB005CC3E5169410E5159427500302155CE4F4
:1014DB00F515F51690006EE0B44619E512700C7513
:1014EB001201F511751801F51E8009E4F512F511BD
:1014FB00F518F51EE51264017057121B4E90006E25
:10150B00E0FFB44416E518B4010475180222E5187F
:10151B00B402047518032275180122EFB4430CE5CD
:10152B001E7004751E0122E4F51E22EFB41622C3B1
:10153B00E51164809486500405118003E4F511AF26
:10154B0011EF3395E0FE7C007D3C1200B98E138FBA
:02155B00142258
:101CE30090FF0774C1F090FF0BF090FF0AF090FF94
:031CF30009F022D3
:10155D00E512640160030215E8751901E51E6007C7
:10156D00751A01D2878005E4F51AC287D3E5149464
:10157D0000E51394004005751B018003E4F51BE5A0
:10158D0018B40108D293C292C2918018E518B40222
:10159D0008C293D292C291800BE518B40306C29390
:1015AD00C292D291D3E51164809481400785110FC9
:1015BD0075104822E511B4011BAE13AF147C007DEC
:1015CD000A1200CB8F0FAE13AF147C007D0A1200F0
:1015DD00CB8D102285180F75104622E4F518F51ED7
:1015ED00F511F513F514F50FF510F519F51AF51BA1
:0115FD0022CB
:101AAD00121CA490FE927410F012171DD2AF1211D9
:101ABD005E1219BC121CCF121C77121CE3300105EB
:101ACD00121BFDC201121417120AA812155D7F0A0E
:071ADD007E0012002E80E6DE
:01000A0022D3
:101B7F00E4FF75F002EFA4241BF582E5F03400F5C5
:101B8F0083E0FCA3E0FD75F002EFA42464F582E589
:0E1B9F00F03400F583ECF0A3EDF00FBF04D49A
:011BAD002215
:101805000001020307090A0B0C0D0E0F0F00000063
:101815000014000078090A20050064020200500047
:101825000A000A000A000A000A000A000A000A0063
:101835000A000A000A000A000A000A000A000A0053
:1018450078007800780078007800780078007800D3
:1018550078007800780078007800780078007804BF
:091865000F0C000060C878FF04BC
:1016D60042005007D042005203E84200190064411C
:0716E60000040A41004F025D
:0100120020CD
:1016ED00C1014200920000012B00C185C1040227F7
:1016FD000000C102C100C103022C0000022900003C
:0F170D0001260001220001230001240001250014
:101C2100D310AF01C3C0D075FDF075FC0F8EFA8FD4
:101C3100F975FDD275FC2D75FDE175FC1ED0D092B4
:021C4100AF22D0
:101BD900D310AF01C3C0D08DFB75FDF075FC0F8E1E
:101BE900FA8FF975FDB475FC4B75FDE175FC1ED0D6
:041BF900D092AF22B5
:10197800D310AF01C3C0D08E2F8F308D318B328AF8
:031988003389346C
:10198B00E4FCECC3953150240530E530AE2F7002EA
:10199B00052F14FFAB320534E534AA33700205333F
:0C19AB0014F912008EFD121BD90C80D61E
:0519B700D0D092AF2228
:1018D200153A153A153AA83AA60308A60208A6012F
:1018E200153AA83AA605153A153AA83AA60608A640
:1018F20007A83A0808E616602CA83A0806E61886F1
:101902000670010614F5828E83E493FFE53A240300
:10191200F88603080806E618860270010614F9EF35
:0C1922001200A780CCE53A2406F53A221A
:101B1A00EF7B017AFE79407D107012FF7E03121965
:101B2A00787B017AFE79607D087F1080117F407E84
:101B3A00031219787B017AFE79607D087F507E0353
:041B4A0012197822D2
:1019FB00153AA83AA607A83AE67B017AFE79407D0C
:101A0B00107E037012FF1218D27B017AFE79607D73
:101A1B00087E037F1080117F401218D27B017AFE63
:0E1A2B0079607D087E037F501218D2053A22A2
:10026B00E4FDFC901866E493FFEDC39F50787E008D
:10027B007401A805088005C333CE33CED8F9FFE54A
:10028B002C5EFAE52D5F4A603FE5295EFEE52A5FAD
:10029B004E600E74052DF582E43400F583ECF0808E
:1002AB000D74052DF582E43400F58374FFF0742B87
:1002BB002DF582E43400F583ECF02437F582E43439
:1002CB0000F583EDF00C801A742B2DF582E43400CD
:1002DB00F58374FFF074052DF582E43400F5837417
:0602EB00FFF00D02026E9F
:0102F10022EA
:101792000526901866E493FFE526C39F4033D205E1
:1017A200D201D202E4F526901868936401702230C7
:1017B200041FB20020000C90181A9390FE76F07F5E
:1017C20000800B90181BE49390FE76F07F011219B3
:1017D200FBE52D452C7003D202227E007401A8265F
:1017E200088005C333CE33CED8F9FFE52C5EFEE583
:1017F2002D5F4E609BE52690180593F5D5000000FD
:03180200000022C1
:10127200900094744EF0A37420F0901815E49370CB
:101282000302135BEF600302133B90181704937081
:1012920002E493600302132DFF901864E493FEEFBF
:1012A200C39E504875F002EFA4241BF582E5F0348A
:1012B20000F583E0FCA3E0FDD3900095E09D900053
:1012C20094E09C402475F002EFA4241BF582E5F023
:1012D2003400F583E0FCA3E0FDD394C8EC94004015
:1012E20008900094ECF0A3EDF00F80AD900095E033
:1012F200249CF0900094E034FFF0E0FEA3E0FF7C39
:10130200007D641201207C007D641200B99000947B
:10131200EEF0A3EFF0C39464EE64809480403A90C0
:101322000094E0F527A3E0F5288019901817E493BC
:10133200F527740193F528800BE527C313F527E5FC
:101342002813F52853D4BFC201C20543D440300547
:09135200FDC20112006A3001FD28
:01135B00226F
:0A0D8400901815E49370030210416B
:100D8E00E4F538F53975F002E525A4241BF582E566
:100D9E00F03400F583E0F538A3E0F539E52460037F
:100DAE00020E8790181693FFC3E5289FFFE5279440
:100DBE0000FEC3E5399FE5389E505AE5269018058A
:100DCE00932440F582E434FEF583E4F0E526901892
:100DDE000593FF54017012EFC3132460F582E434BF
:100DEE00FEF583E054F0FF8015E52690180593C3B9
:100DFE00132460F582E434FEF583E0540FFFE526FC
:100E0E0090180593FEC3132460F582E434FEF58337
:100E1E00EFF00217927522017523FFE52690180553
:100E2E0093FF54017014EFC3132460F582E434FE73
:100E3E00F583E054F04401FF8017E52690180593E2
:100E4E00C3132460F582E434FEF583E0540F44109E
:100E5E00FFE52690180593C3132460F582E434FE53
:100E6E00F583EFF0E526901805932440F582E434DF
:100E7E00FEF58374FFF0052422E52464016003026D
:100E8E000F4B901816937E002528FFEE3527FED3C4
:100E9E00E5399FE5389E5003020F36E5269018057A
:100EAE0093FF5401FD7C00700EEF132460F582E475
:100EBE0034FEF583E08013E52690180593C31324C2
:100ECE0060F582E434FEF583E0C4540FFF8F2BC32C
:100EDE00EF940774809480504F052BED4C7019E5FC
:100EEE002690180593C3132460F582E434FEF5832F
:100EFE00E054F0452BFF801CE52690180593C31394
:100F0E002460F582E434FEF583E0540FFFE52BC434
:100F1E0054F04FFFE52690180593C3132460F58215
:100F2E00E434FEF583EFF0220524E52690180593B0
:100F3E002440F582E434FEF5837480F022E52464C7
:100F4E0002600302102AC3E5239522FFE49400FEFB
:100F5E00D3EF9400EE64809480500302102A901810
:100F6E0016E493F97E002528FFEE3527FEC3E539FA
:100F7E009FE5389E403FE523FD2522FFE433A2E79F
:100F8E0013EF13F522FF7E00C3ED9FFDE49EFCD30D
:100F9E00ED9401EC648094804007EF2523FFEE80F2
:100FAE0050E526901805932440F582E434FEF5832F
:100FBE00E523F08067E9FFC3E5289FFFE52794004E
:100FCE00FED3E5399FE5389E5052AD227C00ED25CB
:100FDE0023FFEC33A2E713EF13F523C39DFFE49C2D
:100FEE00FED3EF9401EE64809480401EED2523FF26
:100FFE00EC33A2E713EF13FFE52690180593244078
:10100E00F582E434FEF583EFF022E5269018059381
:10101E002440F582E434FEF583E522F0E4F5241253
:10102E0017920525901864E493FFE525C39F4003AE
:03103E00E4F525B1
:01104100228C
:101AE40090FE40E4F0A3F0A3F0A3F0A3F0A3F0A3CE
:101AF400F0A3F0A3F0A3F0A3F0A3F0A3F0A3F0A34A
:101B0400F0A3F090FE60F0A3F0A3F0A3F0A3F0A381
:061B1400F0A3F0A3F02293
:10115E0090FE94E04402F0121AE47F007E03121C0B
:10116E0021901819E49390FE77F090181AE493905A
:10117E00FE76F090181CE49390FE75F090181DE426
:10118E009390FE74F0901811E493F52C740193F57E
:10119E002D901813E493F529740193F52A43D48006
:1011AE00D2BD12026B901866E493F526121792D2F6
:1011BE0003C20112006AC204901867E493FFD3942D
:1011CE0003748094805005752E058005EF2403F579
:1011DE002EE52E600B3001F9121B7F12006680F196
:1011EE00E4FF121272901868E493604AE4FF121B37
:1011FE001A121AE490181BE49390FE76F09018677A
:10120E00E493FFD39403748094805005752E05806B
:10121E0005EF2403F52EE52E600B3001F9121B7F2E
:10122E0012006680F17F011212727F01121B1A7F6B
:10123E00001219FBD204901867E493FFD394037441
:10124E008094805005752E058005EF2403F52EE55C
:10125E002E600B3001F9121B7F12006680F1121AFC
:03126E0074C20344
:01127100225A
:10186E0053D4DFC390186B74019395D6E49395D738
:10187E00403A742B2526200016F582E43400F583B9
:10188E00E075F002A4241BF582E5F034008014F517
:10189E0082E43400F583E075F002A42423F582E59A
:1018AE00F03400F583E5D7F0A3E5D6F03005051248
:1018BE0017928003120D84300303200106200203C9
:0418CE0043D440229D
:0A02F200D202E5D420E6FBC201228F
:04006600152EC20190
:09006A00300205C20243D4402219
:101CF60030020FC202900037E0B5D503D20122436D
:031D0600D44022A4
:101A7400E4FF901864E493FEEFC39E502B75F002CC
:101A8400EFA42464F582E5F03400F583E0FCA3E0E0
:101A9400FD75F002EFA42454F582E5F03400F583DB
:081AA400ECF0A3EDF00F80CA85
:011AAC002217
:101BFD00121B7F1202F2E4F52E901866E493FFE5B6
:101C0D002EC39F5009AF2E120380052E80EB1200BC
:041C1D000A02006A4D
:020380008F2FBD
:10038200E4FBFAF530F531C206C207C208F534F5CE
:1003920035F536F537FE04A807088005C333CE339A
:1003A200CED8F9F5338E32C3740F952FFFE4940043
:1003B200FEEF25E0FFEE33FE74442FF58274183E03
:1003C200F583E493FC740193FD900004E0FF7E004A
:1003D2001200B97C007D0A1200CBAA06AB07C374D7
:1003E2000F952FFFE49400FEEF25E0FFEE33FE743D
:1003F200242FF58274183EF583E493F5307401934B
:10040200F5317405252FF582E43400F583E0FF749D
:100412002B252FF582E43400F583E0FEB50706EFC5
:10042200F46002D2078E2FE52FF47003020AA79020
:100432001868E493700302055875F002E52FA424AE
:100442001BF582E5F03400F583E0FEA3E0FF90188F
:1004520069E493FC740193FDC3EF9DEE9C401F750C
:10046200F002E52FA42423F582E5F03400F583E0C1
:10047200FEA3E0C39DEE9C4005C20802055875F03C
:1004820002E52FA42423F582E5F03400F583E0FE93
:10049200A3E0FF90186DE493FDEFA805088005CE58
:1004A200C313CE13D8F9F5378E3675F002E52FA4B3
:1004B2002423F582E5F03400F583A3E025E0FF056F
:1004C20082D5820215831582E033FE75F002E52F94
:1004D200A4241BF582E5F03400F583E0FCA3E0FDE3
:1004E200C39FEC9E403975F002E52FA42423F582C8
:1004F200E5F03400F583A3E025E0FF0582D5820212
:1005020015831582E033FEC3ED9FFFEC9EFEC3EF21
:100512009537EE95364004D208803BC20880377585
:10052200F002E52FA42423F582E5F03400F583A33D
:10053200E025E0FF0582D5820215831582E033FEB5
:10054200C3EF9DFFEE9CFEC3EF9537EE9536400458
:10055200D2088002C20875F002E52FA42454F58265
:10056200E5F03400F583E0FEA3E0FF75F002E52F2D
:10057200A42464F582E5F03400F583E0FCA3E0C333
:100582009FF535EC9EF534901822E4936064FD7C6F
:1005920000AF03AE021200B9D3E5359FEE6480F8D6
:1005A200E5346480984049743B252FF582E4340099
:1005B200F583E004F0743B252FF582E43400F583E3
:1005C200E0FF901821E493FEEFC39E401FE533F451
:1005D200FFE532F4FE900092E05EF0A3E05FF0747B
:1005E2003B252FF582E43400F583E4F0D206800245
:1005F200C206C3E5359BEA6480F8E534648098500E
:1006020003020754300741900050E0FEA3E0FF4E82
:1006120070030206BF75F002E52FA4243FF582E5C0
:10062200F03400F583E475F00112015675F002E52D
:100632002FA4243FF582E5F03400F583E0FCA3E02B
:10064200C39FEC9E4077803C900052E0FEA3E0FF07
:100652004E606A75F002E52FA4243FF582E5F0347E
:1006620000F583E475F00112015675F002E52FA43E
:10067200243FF582E5F03400F583E0FCA3E0C39F5C
:10068200EC9E403975F002E52FA42454F582E5F082
:100692003400F583E5348535F01201567400252FB8
:1006A200F582E43400F583E4F075F002E52FA4242A
:1006B2003FF582E5F03400F583E4F0A3F030060361
:1006C200020743901865E4932BFFE43AFEC3E53535
:1006D2009FEE6480F8E53464809840587400252FBA
:1006E200F582E43400F583E004F07400252FF582EE
:1006F200E43400F583E0FF901820E493FEEFC39EFC
:10070200401C200819900092E04532F0A3E04533E6
:10071200F07400252FF582E43400F583E4F075F0DF
:1007220002E52FA4245CF582E5F03400F583E4F0C1
:10073200A3F0800D7400252FF582E43400F583E4E4
:10074200F075F002E52FA42411F582E5F0340002E1
:1007520009ACD3E5359531E5306480F8E534648041
:10076200985003020855900019E0FEA3E0FF4E6086
:100772005D75F002E52FA4245CF582E5F03400F506
:1007820083E475F00112015675F002E52FA4245C92
:10079200F582E5F03400F583E0FCA3E0D39FEC9E04
:1007A200402C75F002E52FA42454F582E5F03400C4
:1007B200F583E5348535F012015675F002E52FA474
:1007C200245CF582E5F03400F583E4F0A3F09018A0
:1007D20065E493FFC3EB9FFFEA9400FEC3E5359FF8
:1007E200EE6480F8E5346480985059743B252FF507
:1007F20082E43400F583E004F0743B252FF582E4B3
:100802003400F583E0FF901821E493FEEFC39E408D
:100812001FE533F4FFE532F4FE900092E05EF0A3B0
:10082200E05FF0743B252FF582E43400F583E4F0B9
:1008320075F002E52FA4243FF582E5F03400F5833C
:10084200E4F0A3F07400252FF582E43400F583E48C
:100852000209B1C3E49531FFE49530FEC3E5359F4B
:10086200EE6480F8E53464809850030209C3D3E54E
:10087200359531E5306480F8E534648098400302B0
:1008820009C375F002E52FA42411F582E5F03400C6
:10089200F583E5348535F0120156901823E493F977
:1008A200FF75F002E52FA42411F582E5F03400F57E
:1008B20083E0FCA3E0FDD39F7480F8EC6480984051
:1008C2001D90004FE0FF75F002E52FA42454F5823D
:1008D200E5F03400F583E48FF01201568044E9FF1D
:1008E200C3E49FFFE49400FEC3ED9FEE6480F8EC46
:1008F200648098504175F002E52FA42454F582E5F6
:10090200F03400F583C083C082E0FEA3E0FF9000D4
:100912004FE0FDC3EF9DFFEE9400D082D083F0A3A1
:10092200EFF075F002E52FA42411F582E5F0340012
:10093200F583E4F0A3F0743B252FF582E43400F54F
:1009420083E004F0743B252FF582E43400F583E064
:10095200FF901821E493FEEFC39E401F743B252FA6
:10096200F582E43400F583E4F0E533F4FFE532F494
:10097200FE900092E05EF0A3E05FF07400252FF598
:1009820082E43400F583E4F075F002E52FA4243FFD
:10099200F582E5F03400F583E4F0A3F075F002E5AA
:1009A2002FA4245CF582E5F03400F583E4F0A3F093
:1009B20075F002E52FA42447F582E5F03400020A1F
:1009C200A190181EE493FE740193FF4E605D75F0D2
:1009D20002E52FA42447F582E5F03400F583E4759F
:1009E200F00112015675F002E52FA42447F582E5C5
:1009F200F03400F583E0FCA3E0C39FEC9E402C752D
:100A0200F002E52FA42447F582E5F03400F583E4F3
:100A1200F0A3F075F002E52FA42454F582E5F0343A
:100A220000F583E5348535F0120156743B252FF528
:100A320082E43400F583E004F0743B252FF582E470
:100A42003400F583E0FF901821E493FEEFC39E404B
:100A52001F743B252FF582E43400F583E4F0E5337F
:100A6200F4FFE532F4FE900092E05EF0A3E05FF066
:100A72007400252FF582E43400F583E4F075F0026A
:100A8200E52FA4243FF582E5F03400F583E4F0A3DA
:100A9200F075F002E52FA4245CF582E5F03400F550
:050AA20083E4F0A3F065
:010AA700222C
:101C430090FF1074C1F0D2A090FFA07420F0759E95
:0B1C53000274FFF5CEF5CD75CC062223
:081D1C008F993099FDC2992254
:101D0900AD07AC068C993099FDC2998D993099FD32
:031D1900C299224A
:10171D00E4F58090FF0004F090FF01F090FF02F0DF
:10172D0090FF03F090FF04F090FF05F090FF06F09E
:10173D0090FF07F090FF08F090FF09F090FF0AF07E
:10174D0090FF0BF090FF0CF090FF0DF090FF0EF05E
:10175D0090FF0FF0E4F5A090FF1004F090FF11F052
:10176D0090FF12F090FF13F090FF14F090FF15F022
:10177D0090FF16F090FF17F0E4F5B090FF1C04F009
:05178D0090FF1DF02299
:03000300020006F2
:0200060080FE7A
:03001300020008E0
:0200080080FE78
:03001B0002000ED2
:02000E0080FE72
:03002300020010C8
:0200100080FE70
:03002B00020016BA
:0200160080FE6A
:03004B0002001898
:0200180080FE68
:0300530002001E8A
:02001E0080FE62
:03005B0002002080
:0200200080FE60
:0300630002002672
:0200260080FE5A
:03007300021A3935
:101A3900C0E0C0F0C083C082C0D075D000C000C073
:101A490001C002C003C004C005C006C00712186E59
:101A5900D007D006D005D004D003D002D001D000E1
:0B1A6900D0D0D082D083D0F0D0E0328B
:03007B0002002858
:0200280080FE58
:101CA400758E1190FE917401F090FEAA74FFF0906D
:061CB400FEA474C2F02240
:10161800021AADE493A3F8E493A34003F68001F221
:1016280008DFF48029E493A3F85407240CC8C333D3
:10163800C4540F4420C8834004F456800146F6DFA2
:10164800E4800B0102040810204080901698E47E84
:10165800019360BCA3FF543F30E509541FFEE49397
:10166800A360010ECF54C025E060A840B8E493A35E
:10167800FAE493A3F8E493A3C8C582C8CAC583CA89
:10168800F0A3C8C582C8CAC583CADFE9DEE780BE41
:01171C0000CC
:10008E00BB010689828A83E0225002E722BBFE0270
:09009E00E32289828A83E49322A3
:1000A700BB010689828A83F0225002F722BBFE0138
:0200B700F32232
:1000B900EF8DF0A4A8F0CF8CF0A428CE8DF0A42E5B
:0200C900FE2215
:1000CB00BC000BBE0029EF8DF084FFADF022E4CC19
:1000DB00F875F008EF2FFFEE33FEEC33FCEE9DECE2
:1000EB00984005FCEE9DFE0FD5F0E9E4CEFD22ED28
:1000FB00F8F5F0EE8420D21CFEADF075F008EF2F72
:10010B00FFED33FD4007985006D5F0F222C398FD62
:05011B000FD5F0EA22FF
:10012000C2D5EC30E709B2D5E4C39DFDE49CFCEEFA
:1001300030E715B2D5E4C39FFFE49EFE1200CBC3A7
:10014000E49DFDE49CFC80031200CB30D507C3E4A2
:060150009FFFE49EFE2269
:10015600C5F0F8A3E028F0C5F0F8E5821582700234
:060166001583E038F022D1
:10016C0075F008758200EF2FFFEE33FECD33CDCC4A
:10017C0033CCC58233C5829BED9AEC99E5829840CD
:10018C000CF582EE9BFEED9AFDEC99FC0FD5F0D6AA
:10019C00E4CEFBE4CDFAE4CCF9A88222B800C1B9D4
:1001AC000059BA002DEC8BF084CFCECDFCE5F0CB12
:1001BC00F97818EF2FFFEE33FEED33FDEC33FCEB4B
:1001CC0033FB10D703994004EB99FB0FD8E5E4F906
:1001DC00FA227818EF2FFFEE33FEED33FDEC33FCF3
:1001EC00C933C910D7059BE99A4007EC9BFCE99AE7
:1001FC00F90FD8E0E4C9FAE4CCFB2275F010EF2F2C
:10020C00FFEE33FEED33FDCC33CCC833C810D7072B
:10021C009BEC9AE899400AED9BFDEC9AFCE899F866
:0E022C000FD5F0DAE4CDFBE4CCFAE4C8F922F9
:10023A00EB9FF5F0EA9E42F0E99D42F0E89C45F01A
:01024A002291
:10024B007401FF3395E0FEFDFC080808E6CF2FF69E
:10025B0018E6CE3EF618E6CD3DF618E6CC3CF62277
:00000001FF
